{
  "_format": "hh-sol-artifact-1",
  "contractName": "Market",
  "sourceName": "contracts/Market.sol",
  "abi": [
    {
      "inputs": [
        {
          "internalType": "address",
          "name": "_usdt",
          "type": "address"
        }
      ],
      "stateMutability": "nonpayable",
      "type": "constructor"
    },
    {
      "anonymous": false,
      "inputs": [
        {
          "indexed": true,
          "internalType": "address",
          "name": "previousOwner",
          "type": "address"
        },
        {
          "indexed": true,
          "internalType": "address",
          "name": "newOwner",
          "type": "address"
        }
      ],
      "name": "OwnershipTransferred",
      "type": "event"
    },
    {
      "inputs": [
        {
          "internalType": "address",
          "name": "_tokenAddress",
          "type": "address"
        }
      ],
      "name": "getBuyOrders",
      "outputs": [
        {
          "components": [
            {
              "internalType": "address",
              "name": "trader",
              "type": "address"
            },
            {
              "internalType": "uint256",
              "name": "amount",
              "type": "uint256"
            },
            {
              "internalType": "uint256",
              "name": "totalValue",
              "type": "uint256"
            },
            {
              "internalType": "bool",
              "name": "isBuyOrder",
              "type": "bool"
            },
            {
              "internalType": "bool",
              "name": "active",
              "type": "bool"
            }
          ],
          "internalType": "struct Market.Order[]",
          "name": "",
          "type": "tuple[]"
        }
      ],
      "stateMutability": "view",
      "type": "function"
    },
    {
      "inputs": [
        {
          "internalType": "address",
          "name": "_tokenAddress",
          "type": "address"
        }
      ],
      "name": "getFullOrderBook",
      "outputs": [
        {
          "components": [
            {
              "internalType": "address",
              "name": "trader",
              "type": "address"
            },
            {
              "internalType": "uint256",
              "name": "amount",
              "type": "uint256"
            },
            {
              "internalType": "uint256",
              "name": "totalValue",
              "type": "uint256"
            },
            {
              "internalType": "bool",
              "name": "isBuyOrder",
              "type": "bool"
            },
            {
              "internalType": "bool",
              "name": "active",
              "type": "bool"
            }
          ],
          "internalType": "struct Market.Order[]",
          "name": "",
          "type": "tuple[]"
        },
        {
          "components": [
            {
              "internalType": "address",
              "name": "trader",
              "type": "address"
            },
            {
              "internalType": "uint256",
              "name": "amount",
              "type": "uint256"
            },
            {
              "internalType": "uint256",
              "name": "totalValue",
              "type": "uint256"
            },
            {
              "internalType": "bool",
              "name": "isBuyOrder",
              "type": "bool"
            },
            {
              "internalType": "bool",
              "name": "active",
              "type": "bool"
            }
          ],
          "internalType": "struct Market.Order[]",
          "name": "",
          "type": "tuple[]"
        }
      ],
      "stateMutability": "view",
      "type": "function"
    },
    {
      "inputs": [],
      "name": "getRegisteredTokens",
      "outputs": [
        {
          "components": [
            {
              "internalType": "address",
              "name": "tokenAddress",
              "type": "address"
            },
            {
              "internalType": "string",
              "name": "name",
              "type": "string"
            },
            {
              "internalType": "string",
              "name": "symbol",
              "type": "string"
            },
            {
              "internalType": "string",
              "name": "asset",
              "type": "string"
            },
            {
              "internalType": "string",
              "name": "doc",
              "type": "string"
            },
            {
              "internalType": "bool",
              "name": "active",
              "type": "bool"
            }
          ],
          "internalType": "struct Market.RegisteredToken[]",
          "name": "",
          "type": "tuple[]"
        }
      ],
      "stateMutability": "view",
      "type": "function"
    },
    {
      "inputs": [
        {
          "internalType": "address",
          "name": "_tokenAddress",
          "type": "address"
        }
      ],
      "name": "getSellOrders",
      "outputs": [
        {
          "components": [
            {
              "internalType": "address",
              "name": "trader",
              "type": "address"
            },
            {
              "internalType": "uint256",
              "name": "amount",
              "type": "uint256"
            },
            {
              "internalType": "uint256",
              "name": "totalValue",
              "type": "uint256"
            },
            {
              "internalType": "bool",
              "name": "isBuyOrder",
              "type": "bool"
            },
            {
              "internalType": "bool",
              "name": "active",
              "type": "bool"
            }
          ],
          "internalType": "struct Market.Order[]",
          "name": "",
          "type": "tuple[]"
        }
      ],
      "stateMutability": "view",
      "type": "function"
    },
    {
      "inputs": [],
      "name": "owner",
      "outputs": [
        {
          "internalType": "address",
          "name": "",
          "type": "address"
        }
      ],
      "stateMutability": "view",
      "type": "function"
    },
    {
      "inputs": [
        {
          "internalType": "uint256",
          "name": "_amount",
          "type": "uint256"
        },
        {
          "internalType": "uint256",
          "name": "_price",
          "type": "uint256"
        },
        {
          "internalType": "address",
          "name": "_tokenAddress",
          "type": "address"
        }
      ],
      "name": "placeBuyOrder",
      "outputs": [],
      "stateMutability": "nonpayable",
      "type": "function"
    },
    {
      "inputs": [
        {
          "internalType": "uint256",
          "name": "_amount",
          "type": "uint256"
        },
        {
          "internalType": "uint256",
          "name": "_price",
          "type": "uint256"
        },
        {
          "internalType": "address",
          "name": "_tokenAddress",
          "type": "address"
        }
      ],
      "name": "placeSellOrder",
      "outputs": [],
      "stateMutability": "nonpayable",
      "type": "function"
    },
    {
      "inputs": [
        {
          "internalType": "address",
          "name": "_tokenAddress",
          "type": "address"
        },
        {
          "internalType": "string",
          "name": "_name",
          "type": "string"
        },
        {
          "internalType": "string",
          "name": "_symbol",
          "type": "string"
        },
        {
          "internalType": "string",
          "name": "_asset",
          "type": "string"
        },
        {
          "internalType": "string",
          "name": "_doc",
          "type": "string"
        }
      ],
      "name": "registerToken",
      "outputs": [],
      "stateMutability": "nonpayable",
      "type": "function"
    },
    {
      "inputs": [
        {
          "internalType": "uint256",
          "name": "index",
          "type": "uint256"
        },
        {
          "internalType": "address",
          "name": "_tokenAddress",
          "type": "address"
        }
      ],
      "name": "removeBuyOrder",
      "outputs": [],
      "stateMutability": "nonpayable",
      "type": "function"
    },
    {
      "inputs": [
        {
          "internalType": "uint256",
          "name": "index",
          "type": "uint256"
        },
        {
          "internalType": "address",
          "name": "_tokenAddress",
          "type": "address"
        }
      ],
      "name": "removeSellOrder",
      "outputs": [],
      "stateMutability": "nonpayable",
      "type": "function"
    },
    {
      "inputs": [],
      "name": "renounceOwnership",
      "outputs": [],
      "stateMutability": "nonpayable",
      "type": "function"
    },
    {
      "inputs": [
        {
          "internalType": "address",
          "name": "newOwner",
          "type": "address"
        }
      ],
      "name": "transferOwnership",
      "outputs": [],
      "stateMutability": "nonpayable",
      "type": "function"
    },
    {
      "inputs": [
        {
          "internalType": "address",
          "name": "_tokenAddress",
          "type": "address"
        }
      ],
      "name": "unregisterToken",
      "outputs": [],
      "stateMutability": "nonpayable",
      "type": "function"
    },
    {
      "inputs": [],
      "name": "usdt",
      "outputs": [
        {
          "internalType": "contract IERC20",
          "name": "",
          "type": "address"
        }
      ],
      "stateMutability": "view",
      "type": "function"
    }
  ],
  "bytecode": "0x608060405234801561001057600080fd5b5060405162001d1b38038062001d1b833981016040819052610031916100af565b61003a3361005f565b600380546001600160a01b0319166001600160a01b03929092169190911790556100df565b600080546001600160a01b038381166001600160a01b0319831681178455604051919092169283917f8be0079c531659141344cd1fd0a4f28419497f9722a3daafe3b4186f6b6457e09190a35050565b6000602082840312156100c157600080fd5b81516001600160a01b03811681146100d857600080fd5b9392505050565b611c2c80620000ef6000396000f3fe608060405234801561001057600080fd5b50600436106100ea5760003560e01c80638da5cb5b1161008c578063c22d4d6b11610066578063c22d4d6b146101d2578063eac92f2a146101e5578063ed8f219d146101f8578063f2fde38b1461021957600080fd5b80638da5cb5b1461019b578063922b0b7d146101ac578063bad61ccb146101bf57600080fd5b80634412f0f3116100c85780634412f0f31461014d578063551f7a5014610160578063715018a61461018057806377860cdd1461018857600080fd5b806314cbd993146100ef5780632f48ab7d1461010d57806342020b6814610138575b600080fd5b6100f761022c565b604051610104919061162c565b60405180910390f35b600354610120906001600160a01b031681565b6040516001600160a01b039091168152602001610104565b61014b610146366004611743565b6104fb565b005b61014b61015b36600461176f565b6105bd565b61017361016e3660046117a4565b6108ff565b6040516101049190611838565b61014b6109b4565b61014b6101963660046117a4565b6109c8565b6000546001600160a01b0316610120565b61014b6101ba36600461176f565b610abc565b61014b6101cd366004611743565b610d28565b61014b6101e03660046118ee565b610dbf565b6101736101f33660046117a4565b610f1b565b61020b6102063660046117a4565b610fc5565b6040516101049291906119ac565b61014b6102273660046117a4565b611120565b60606001805480602002602001604051908101604052809291908181526020016000905b828210156104f25760008481526020908190206040805160c081019091526006850290910180546001600160a01b031682526001810180549293919291840191610299906119da565b80601f01602080910402602001604051908101604052809291908181526020018280546102c5906119da565b80156103125780601f106102e757610100808354040283529160200191610312565b820191906000526020600020905b8154815290600101906020018083116102f557829003601f168201915b5050505050815260200160028201805461032b906119da565b80601f0160208091040260200160405190810160405280929190818152602001828054610357906119da565b80156103a45780601f10610379576101008083540402835291602001916103a4565b820191906000526020600020905b81548152906001019060200180831161038757829003601f168201915b505050505081526020016003820180546103bd906119da565b80601f01602080910402602001604051908101604052809291908181526020018280546103e9906119da565b80156104365780601f1061040b57610100808354040283529160200191610436565b820191906000526020600020905b81548152906001019060200180831161041957829003601f168201915b5050505050815260200160048201805461044f906119da565b80601f016020809104026020016040519081016040528092919081815260200182805461047b906119da565b80156104c85780601f1061049d576101008083540402835291602001916104c8565b820191906000526020600020905b8154815290600101906020018083116104ab57829003601f168201915b50505091835250506005919091015460ff1615156020918201529082526001929092019101610250565b50505050905090565b6001600160a01b03811660009081526004602052604090205482106105675760405162461bcd60e51b815260206004820152601360248201527f496e646578206f7574206f6620626f756e64730000000000000000000000000060448201526064015b60405180910390fd5b6001600160a01b038116600090815260046020526040812080548490811061059157610591611a14565b906000526020600020906004020160030160016101000a81548160ff0219169083151502179055505050565b6001600160a01b03811660008181526002602052604090205460018054919291839081106105ed576105ed611a14565b60009182526020909120600690910201546001600160a01b031614801561063a57506001818154811061062257610622611a14565b600091825260209091206005600690920201015460ff165b6106ac5760405162461bcd60e51b815260206004820152602260248201527f546f6b656e206e6f742072656769737465726564206f72206e6f74206163746960448201527f7665000000000000000000000000000000000000000000000000000000000000606482015260840161055e565b60006106c0670de0b6b3a764000086611a40565b6106ca9085611a62565b6003546040517f70a0823100000000000000000000000000000000000000000000000000000000815233600482015291925082916001600160a01b03909116906370a0823190602401602060405180830381865afa158015610730573d6000803e3d6000fd5b505050506040513d601f19601f820116820180604052508101906107549190611a7f565b10156107a25760405162461bcd60e51b815260206004820152601960248201527f496e73756666696369656e7420555344542062616c616e636500000000000000604482015260640161055e565b6003546040517f23b872dd000000000000000000000000000000000000000000000000000000008152336004820152306024820152604481018390526001600160a01b03909116906323b872dd906064016020604051808303816000875af1158015610812573d6000803e3d6000fd5b505050506040513d601f19601f820116820180604052508101906108369190611a98565b506001600160a01b038381166000908152600460208181526040808420815160a0810183523381528084018c81529281018881526001606083018181526080840182815285548084018755958a5296909820925193909602909101805473ffffffffffffffffffffffffffffffffffffffff19169290971691909117865590519285019290925590516002840155905160039092018054915161ffff1990921692151561ff00191692909217610100911515919091021790556108f8836111b0565b5050505050565b6001600160a01b0381166000908152600460209081526040808320805482518185028101850190935280835260609492939192909184015b828210156109a95760008481526020908190206040805160a0810182526004860290920180546001600160a01b03168352600180820154848601526002820154928401929092526003015460ff8082161515606085015261010090910416151560808301529083529092019101610937565b505050509050919050565b6109bc61152f565b6109c66000611589565b565b6109d061152f565b6001600160a01b0381166000818152600260205260409020546001805491929183908110610a0057610a00611a14565b60009182526020909120600690910201546001600160a01b031614610a675760405162461bcd60e51b815260206004820152601460248201527f546f6b656e206e6f742072656769737465726564000000000000000000000000604482015260640161055e565b600060018281548110610a7c57610a7c611a14565b60009182526020808320600692909202909101600501805460ff1916931515939093179092556001600160a01b0393909316835260029052506040812055565b806000610ad1670de0b6b3a764000086611a40565b610adb9085611a62565b6040517f70a0823100000000000000000000000000000000000000000000000000000000815233600482015290915085906001600160a01b038416906370a0823190602401602060405180830381865afa158015610b3d573d6000803e3d6000fd5b505050506040513d601f19601f82011682018060405250810190610b619190611a7f565b1015610bd55760405162461bcd60e51b815260206004820152602360248201527f496e73756666696369656e7420536563757269747920546f6b656e2062616c6160448201527f6e63650000000000000000000000000000000000000000000000000000000000606482015260840161055e565b6040517f23b872dd000000000000000000000000000000000000000000000000000000008152336004820152306024820152604481018690526001600160a01b038316906323b872dd906064016020604051808303816000875af1158015610c41573d6000803e3d6000fd5b505050506040513d601f19601f82011682018060405250810190610c659190611a98565b506001600160a01b038381166000908152600460208181526040808420815160a0810183523381528084018c81529281018881526060820187815260016080840181815294810180548083018255908a5296909820925195909602909101805473ffffffffffffffffffffffffffffffffffffffff1916949097169390931786559051938501939093555160028401555160039092018054915161ffff1990921692151561ff00191692909217610100911515919091021790556108f8836111b0565b6001600160a01b0381166000908152600460205260409020600101548210610d925760405162461bcd60e51b815260206004820152601360248201527f496e646578206f7574206f6620626f756e647300000000000000000000000000604482015260640161055e565b6001600160a01b038116600090815260046020526040812060010180548490811061059157610591611a14565b610dc761152f565b6040805160c0810182526001600160a01b038781168252602082018781529282018690526060820185905260808201849052600160a083018190528054808201825560009190915282517fb10e2d527612073b26eecdfd717e6a320cf44b4afac2b0732d9fcbe2b7fa0cf66006909202918201805473ffffffffffffffffffffffffffffffffffffffff1916919093161782559251919290917fb10e2d527612073b26eecdfd717e6a320cf44b4afac2b0732d9fcbe2b7fa0cf790910190610e8f9082611b09565b5060408201516002820190610ea49082611b09565b5060608201516003820190610eb99082611b09565b5060808201516004820190610ece9082611b09565b5060a091909101516005909101805460ff191691151591909117905560018054610ef89190611bc9565b6001600160a01b0390951660009081526002602052604090209490945550505050565b6001600160a01b03811660009081526004602090815260408083206001018054825181850281018501909352808352606094929391929091840182156109a95760008481526020908190206040805160a0810182526004860290920180546001600160a01b03168352600180820154848601526002820154928401929092526003015460ff8082161515606085015261010090910416151560808301529083529092019101610937565b6001600160a01b0381166000908152600460209081526040808320805482518185028101850190935280835260609485949293600185019390928592909184015b828210156110785760008481526020908190206040805160a0810182526004860290920180546001600160a01b03168352600180820154848601526002820154928401929092526003015460ff8082161515606085015261010090910416151560808301529083529092019101611006565b50505050915080805480602002602001604051908101604052809291908181526020016000905b828210156111115760008481526020908190206040805160a0810182526004860290920180546001600160a01b03168352600180820154848601526002820154928401929092526003015460ff808216151560608501526101009091041615156080830152908352909201910161109f565b50505050905091509150915091565b61112861152f565b6001600160a01b0381166111a45760405162461bcd60e51b815260206004820152602660248201527f4f776e61626c653a206e6577206f776e657220697320746865207a65726f206160448201527f6464726573730000000000000000000000000000000000000000000000000000606482015260840161055e565b6111ad81611589565b50565b6001600160a01b03811660009081526004602052604081209060018201905b8254811015611529578281815481106111ea576111ea611a14565b906000526020600020906004020160030160019054906101000a900460ff16156115175760005b82548110156115155782818154811061122c5761122c611a14565b906000526020600020906004020160030160019054906101000a900460ff161561150357600084838154811061126457611264611a14565b90600052602060002090600402019050600084838154811061128857611288611a14565b906000526020600020906004020190508060020154826002015410611500576000879050600082600101548460010154106112c75782600101546112cd565b83600101545b9050600083600201548560020154106112ea5783600201546112f0565b84600201545b85546040517fa9059cbb0000000000000000000000000000000000000000000000000000000081526001600160a01b0391821660048201526024810185905291925084169063a9059cbb906044016020604051808303816000875af115801561135d573d6000803e3d6000fd5b505050506040513d601f19601f820116820180604052508101906113819190611a98565b5060035484546040517fa9059cbb0000000000000000000000000000000000000000000000000000000081526001600160a01b0391821660048201526024810184905291169063a9059cbb906044016020604051808303816000875af11580156113ef573d6000803e3d6000fd5b505050506040513d601f19601f820116820180604052508101906114139190611a98565b50818560010160008282546114289190611bc9565b92505081905550818460010160008282546114439190611bc9565b925050819055508085600201600082825461145e9190611bc9565b92505081905550808460020160008282546114799190611bc9565b90915550506001850154158061149157506002850154155b156114a45760038501805461ff00191690555b600184015415806114b757506002840154155b156114ca5760038401805461ff00191690555b6003850154610100900460ff1615806114ed57506003840154610100900460ff16155b156114fc575050505050611515565b5050505b50505b8061150d81611bdc565b915050611211565b505b8061152181611bdc565b9150506111cf565b50505050565b6000546001600160a01b031633146109c65760405162461bcd60e51b815260206004820181905260248201527f4f776e61626c653a2063616c6c6572206973206e6f7420746865206f776e6572604482015260640161055e565b600080546001600160a01b0383811673ffffffffffffffffffffffffffffffffffffffff19831681178455604051919092169283917f8be0079c531659141344cd1fd0a4f28419497f9722a3daafe3b4186f6b6457e09190a35050565b6000815180845260005b8181101561160c576020818501810151868301820152016115f0565b506000602082860101526020601f19601f83011685010191505092915050565b60006020808301818452808551808352604092508286019150828160051b87010184880160005b83811015611719577fffffffffffffffffffffffffffffffffffffffffffffffffffffffffffffffc0898403018552815160c06001600160a01b03825116855288820151818a8701526116a8828701826115e6565b91505087820151858203898701526116c082826115e6565b915050606080830151868303828801526116da83826115e6565b92505050608080830151868303828801526116f583826115e6565b60a09485015115159790940196909652505094870194925090860190600101611653565b509098975050505050505050565b80356001600160a01b038116811461173e57600080fd5b919050565b6000806040838503121561175657600080fd5b8235915061176660208401611727565b90509250929050565b60008060006060848603121561178457600080fd5b833592506020840135915061179b60408501611727565b90509250925092565b6000602082840312156117b657600080fd5b6117bf82611727565b9392505050565b600081518084526020808501945080840160005b8381101561182d57815180516001600160a01b0316885283810151848901526040808201519089015260608082015115159089015260809081015115159088015260a090960195908201906001016117da565b509495945050505050565b6020815260006117bf60208301846117c6565b634e487b7160e01b600052604160045260246000fd5b600082601f83011261187257600080fd5b813567ffffffffffffffff8082111561188d5761188d61184b565b604051601f8301601f19908116603f011681019082821181831017156118b5576118b561184b565b816040528381528660208588010111156118ce57600080fd5b836020870160208301376000602085830101528094505050505092915050565b600080600080600060a0868803121561190657600080fd5b61190f86611727565b9450602086013567ffffffffffffffff8082111561192c57600080fd5b61193889838a01611861565b9550604088013591508082111561194e57600080fd5b61195a89838a01611861565b9450606088013591508082111561197057600080fd5b61197c89838a01611861565b9350608088013591508082111561199257600080fd5b5061199f88828901611861565b9150509295509295909350565b6040815260006119bf60408301856117c6565b82810360208401526119d181856117c6565b95945050505050565b600181811c908216806119ee57607f821691505b602082108103611a0e57634e487b7160e01b600052602260045260246000fd5b50919050565b634e487b7160e01b600052603260045260246000fd5b634e487b7160e01b600052601160045260246000fd5b600082611a5d57634e487b7160e01b600052601260045260246000fd5b500490565b8082028115828204841417611a7957611a79611a2a565b92915050565b600060208284031215611a9157600080fd5b5051919050565b600060208284031215611aaa57600080fd5b815180151581146117bf57600080fd5b601f821115611b0457600081815260208120601f850160051c81016020861015611ae15750805b601f850160051c820191505b81811015611b0057828155600101611aed565b5050505b505050565b815167ffffffffffffffff811115611b2357611b2361184b565b611b3781611b3184546119da565b84611aba565b602080601f831160018114611b6c5760008415611b545750858301515b600019600386901b1c1916600185901b178555611b00565b600085815260208120601f198616915b82811015611b9b57888601518255948401946001909101908401611b7c565b5085821015611bb95787850151600019600388901b60f8161c191681555b5050505050600190811b01905550565b81810381811115611a7957611a79611a2a565b60006000198203611bef57611bef611a2a565b506001019056fea26469706673582212203e8ce41d1ee1af8d59a8e6c4f82e7f6a9062e3e92f5f9b6e82d6216b883a8a9664736f6c63430008130033",
  "linkReferences": {},
  "deployedLinkReferences": {}
}