{
  "_format": "hh-sol-artifact-1",
  "contractName": "Market",
  "sourceName": "contracts/Market.sol",
  "abi": [
    {
      "inputs": [
        {
          "internalType": "address",
          "name": "_usdt",
          "type": "address"
        }
      ],
      "stateMutability": "nonpayable",
      "type": "constructor"
    },
    {
      "anonymous": false,
      "inputs": [
        {
          "indexed": true,
          "internalType": "address",
          "name": "previousOwner",
          "type": "address"
        },
        {
          "indexed": true,
          "internalType": "address",
          "name": "newOwner",
          "type": "address"
        }
      ],
      "name": "OwnershipTransferred",
      "type": "event"
    },
    {
      "inputs": [
        {
          "internalType": "address",
          "name": "_tokenAddress",
          "type": "address"
        }
      ],
      "name": "getBuyOrders",
      "outputs": [
        {
          "components": [
            {
              "internalType": "address",
              "name": "trader",
              "type": "address"
            },
            {
              "internalType": "uint256",
              "name": "amount",
              "type": "uint256"
            },
            {
              "internalType": "uint256",
              "name": "totalValue",
              "type": "uint256"
            },
            {
              "internalType": "bool",
              "name": "isBuyOrder",
              "type": "bool"
            }
          ],
          "internalType": "struct Market.Order[]",
          "name": "",
          "type": "tuple[]"
        }
      ],
      "stateMutability": "view",
      "type": "function"
    },
    {
      "inputs": [
        {
          "internalType": "address",
          "name": "_tokenAddress",
          "type": "address"
        }
      ],
      "name": "getFullOrderBook",
      "outputs": [
        {
          "components": [
            {
              "internalType": "address",
              "name": "trader",
              "type": "address"
            },
            {
              "internalType": "uint256",
              "name": "amount",
              "type": "uint256"
            },
            {
              "internalType": "uint256",
              "name": "totalValue",
              "type": "uint256"
            },
            {
              "internalType": "bool",
              "name": "isBuyOrder",
              "type": "bool"
            }
          ],
          "internalType": "struct Market.Order[]",
          "name": "",
          "type": "tuple[]"
        },
        {
          "components": [
            {
              "internalType": "address",
              "name": "trader",
              "type": "address"
            },
            {
              "internalType": "uint256",
              "name": "amount",
              "type": "uint256"
            },
            {
              "internalType": "uint256",
              "name": "totalValue",
              "type": "uint256"
            },
            {
              "internalType": "bool",
              "name": "isBuyOrder",
              "type": "bool"
            }
          ],
          "internalType": "struct Market.Order[]",
          "name": "",
          "type": "tuple[]"
        }
      ],
      "stateMutability": "view",
      "type": "function"
    },
    {
      "inputs": [],
      "name": "getRegisteredTokens",
      "outputs": [
        {
          "components": [
            {
              "internalType": "address",
              "name": "tokenAddress",
              "type": "address"
            },
            {
              "internalType": "string",
              "name": "symbol",
              "type": "string"
            },
            {
              "internalType": "bool",
              "name": "active",
              "type": "bool"
            }
          ],
          "internalType": "struct Market.RegisteredToken[]",
          "name": "",
          "type": "tuple[]"
        }
      ],
      "stateMutability": "view",
      "type": "function"
    },
    {
      "inputs": [
        {
          "internalType": "address",
          "name": "_tokenAddress",
          "type": "address"
        }
      ],
      "name": "getSellOrders",
      "outputs": [
        {
          "components": [
            {
              "internalType": "address",
              "name": "trader",
              "type": "address"
            },
            {
              "internalType": "uint256",
              "name": "amount",
              "type": "uint256"
            },
            {
              "internalType": "uint256",
              "name": "totalValue",
              "type": "uint256"
            },
            {
              "internalType": "bool",
              "name": "isBuyOrder",
              "type": "bool"
            }
          ],
          "internalType": "struct Market.Order[]",
          "name": "",
          "type": "tuple[]"
        }
      ],
      "stateMutability": "view",
      "type": "function"
    },
    {
      "inputs": [],
      "name": "owner",
      "outputs": [
        {
          "internalType": "address",
          "name": "",
          "type": "address"
        }
      ],
      "stateMutability": "view",
      "type": "function"
    },
    {
      "inputs": [
        {
          "internalType": "uint256",
          "name": "_amount",
          "type": "uint256"
        },
        {
          "internalType": "uint256",
          "name": "_price",
          "type": "uint256"
        },
        {
          "internalType": "address",
          "name": "_tokenAddress",
          "type": "address"
        }
      ],
      "name": "placeBuyOrder",
      "outputs": [],
      "stateMutability": "nonpayable",
      "type": "function"
    },
    {
      "inputs": [
        {
          "internalType": "uint256",
          "name": "_amount",
          "type": "uint256"
        },
        {
          "internalType": "uint256",
          "name": "_price",
          "type": "uint256"
        },
        {
          "internalType": "address",
          "name": "_tokenAddress",
          "type": "address"
        }
      ],
      "name": "placeSellOrder",
      "outputs": [],
      "stateMutability": "nonpayable",
      "type": "function"
    },
    {
      "inputs": [
        {
          "internalType": "address",
          "name": "_tokenAddress",
          "type": "address"
        },
        {
          "internalType": "string",
          "name": "symbol",
          "type": "string"
        }
      ],
      "name": "registerToken",
      "outputs": [],
      "stateMutability": "nonpayable",
      "type": "function"
    },
    {
      "inputs": [
        {
          "internalType": "uint256",
          "name": "index",
          "type": "uint256"
        },
        {
          "internalType": "address",
          "name": "_tokenAddress",
          "type": "address"
        }
      ],
      "name": "removeBuyOrder",
      "outputs": [],
      "stateMutability": "nonpayable",
      "type": "function"
    },
    {
      "inputs": [
        {
          "internalType": "uint256",
          "name": "index",
          "type": "uint256"
        },
        {
          "internalType": "address",
          "name": "_tokenAddress",
          "type": "address"
        }
      ],
      "name": "removeSellOrder",
      "outputs": [],
      "stateMutability": "nonpayable",
      "type": "function"
    },
    {
      "inputs": [],
      "name": "renounceOwnership",
      "outputs": [],
      "stateMutability": "nonpayable",
      "type": "function"
    },
    {
      "inputs": [
        {
          "internalType": "address",
          "name": "newOwner",
          "type": "address"
        }
      ],
      "name": "transferOwnership",
      "outputs": [],
      "stateMutability": "nonpayable",
      "type": "function"
    },
    {
      "inputs": [
        {
          "internalType": "address",
          "name": "_tokenAddress",
          "type": "address"
        }
      ],
      "name": "unregisterToken",
      "outputs": [],
      "stateMutability": "nonpayable",
      "type": "function"
    },
    {
      "inputs": [],
      "name": "usdt",
      "outputs": [
        {
          "internalType": "contract IERC20",
          "name": "",
          "type": "address"
        }
      ],
      "stateMutability": "view",
      "type": "function"
    }
  ],
  "bytecode": "0x608060405234801561001057600080fd5b5060405162001b3438038062001b34833981016040819052610031916100af565b61003a3361005f565b600380546001600160a01b0319166001600160a01b03929092169190911790556100df565b600080546001600160a01b038381166001600160a01b0319831681178455604051919092169283917f8be0079c531659141344cd1fd0a4f28419497f9722a3daafe3b4186f6b6457e09190a35050565b6000602082840312156100c157600080fd5b81516001600160a01b03811681146100d857600080fd5b9392505050565b611a4580620000ef6000396000f3fe608060405234801561001057600080fd5b50600436106100ea5760003560e01c80638da5cb5b1161008c578063d4fbeb1911610066578063d4fbeb19146101d2578063eac92f2a146101e5578063ed8f219d146101f8578063f2fde38b1461021957600080fd5b80638da5cb5b1461019b578063922b0b7d146101ac578063bad61ccb146101bf57600080fd5b80634412f0f3116100c85780634412f0f31461014d578063551f7a5014610160578063715018a61461018057806377860cdd1461018857600080fd5b806314cbd993146100ef5780632f48ab7d1461010d57806342020b6814610138575b600080fd5b6100f761022c565b60405161010491906114f1565b60405180910390f35b600354610120906001600160a01b031681565b6040516001600160a01b039091168152602001610104565b61014b6101463660046115f3565b610345565b005b61014b61015b36600461161f565b610550565b61017361016e366004611654565b61085c565b60405161010491906116dc565b61014b610901565b61014b610196366004611654565b610915565b6000546001600160a01b0316610120565b61014b6101ba36600461161f565b610a07565b61014b6101cd3660046115f3565b610c3f565b61014b6101e0366004611705565b610e04565b6101736101f3366004611654565b610f00565b61020b610206366004611654565b610f9a565b6040516101049291906117c7565b61014b610227366004611654565b6110d5565b60606001805480602002602001604051908101604052809291908181526020016000905b8282101561033c57600084815260209081902060408051606081019091526003850290910180546001600160a01b031682526001810180549293919291840191610299906117f5565b80601f01602080910402602001604051908101604052809291908181526020018280546102c5906117f5565b80156103125780601f106102e757610100808354040283529160200191610312565b820191906000526020600020905b8154815290600101906020018083116102f557829003601f168201915b50505091835250506002919091015460ff1615156020918201529082526001929092019101610250565b50505050905090565b6001600160a01b03811660009081526004602052604090205482106103b15760405162461bcd60e51b815260206004820152601360248201527f496e646578206f7574206f6620626f756e64730000000000000000000000000060448201526064015b60405180910390fd5b815b6001600160a01b0382166000908152600460205260409020546103d890600190611845565b8110156104d8576001600160a01b038216600090815260046020526040902061040282600161185e565b8154811061041257610412611871565b906000526020600020906004020160046000846001600160a01b03166001600160a01b03168152602001908152602001600020600001828154811061045957610459611871565b600091825260209091208254600490920201805473ffffffffffffffffffffffffffffffffffffffff19166001600160a01b0390921691909117815560018083015490820155600280830154908201556003918201549101805460ff909216151560ff19909216919091179055806104d081611887565b9150506103b3565b506001600160a01b0381166000908152600460205260409020805480610500576105006118a1565b600082815260208120600460001990930192830201805473ffffffffffffffffffffffffffffffffffffffff19168155600181018290556002810191909155600301805460ff1916905590555050565b6001600160a01b038116600081815260026020526040902054600180549192918390811061058057610580611871565b60009182526020909120600390910201546001600160a01b03161480156105cd5750600181815481106105b5576105b5611871565b600091825260209091206002600390920201015460ff165b61063f5760405162461bcd60e51b815260206004820152602260248201527f546f6b656e206e6f742072656769737465726564206f72206e6f74206163746960448201527f766500000000000000000000000000000000000000000000000000000000000060648201526084016103a8565b600061064b85856118b7565b6003546040517f70a0823100000000000000000000000000000000000000000000000000000000815233600482015291925082916001600160a01b03909116906370a0823190602401602060405180830381865afa1580156106b1573d6000803e3d6000fd5b505050506040513d601f19601f820116820180604052508101906106d591906118ce565b10156107235760405162461bcd60e51b815260206004820152601960248201527f496e73756666696369656e7420555344542062616c616e63650000000000000060448201526064016103a8565b6003546040517f23b872dd000000000000000000000000000000000000000000000000000000008152336004820152306024820152604481018390526001600160a01b03909116906323b872dd906064016020604051808303816000875af1158015610793573d6000803e3d6000fd5b505050506040513d601f19601f820116820180604052508101906107b791906118e7565b506001600160a01b03838116600090815260046020818152604080842081516080810183523381528084018c8152928101888152600160608301818152845480830186559489529590972091519290950201805473ffffffffffffffffffffffffffffffffffffffff1916919096161785555192840192909255516002830155516003909101805460ff191691151591909117905561085583611165565b5050505050565b6001600160a01b0381166000908152600460209081526040808320805482518185028101850190935280835260609492939192909184015b828210156108f6576000848152602090819020604080516080810182526004860290920180546001600160a01b03168352600180820154848601526002820154928401929092526003015460ff16151560608301529083529092019101610894565b505050509050919050565b61090961143a565b6109136000611494565b565b61091d61143a565b6001600160a01b038116600081815260026020526040902054600180549192918390811061094d5761094d611871565b60009182526020909120600390910201546001600160a01b0316146109b45760405162461bcd60e51b815260206004820152601460248201527f546f6b656e206e6f74207265676973746572656400000000000000000000000060448201526064016103a8565b6000600182815481106109c9576109c9611871565b6000918252602080832060026003909302018201805494151560ff19909516949094179093556001600160a01b039094168152929052506040812055565b806000610a1485856118b7565b6040517f70a0823100000000000000000000000000000000000000000000000000000000815233600482015290915085906001600160a01b038416906370a0823190602401602060405180830381865afa158015610a76573d6000803e3d6000fd5b505050506040513d601f19601f82011682018060405250810190610a9a91906118ce565b1015610b0e5760405162461bcd60e51b815260206004820152602360248201527f496e73756666696369656e7420536563757269747920546f6b656e2062616c6160448201527f6e6365000000000000000000000000000000000000000000000000000000000060648201526084016103a8565b6040517f23b872dd000000000000000000000000000000000000000000000000000000008152336004820152306024820152604481018690526001600160a01b038316906323b872dd906064016020604051808303816000875af1158015610b7a573d6000803e3d6000fd5b505050506040513d601f19601f82011682018060405250810190610b9e91906118e7565b506001600160a01b03838116600090815260046020818152604080842081516080810183523381528084018c8152928101888152606082018781526001938401805480860182559089529590972091519490950201805473ffffffffffffffffffffffffffffffffffffffff1916939096169290921785555190840155516002830155516003909101805460ff191691151591909117905561085583611165565b6001600160a01b0381166000908152600460205260409020600101548210610ca95760405162461bcd60e51b815260206004820152601360248201527f496e646578206f7574206f6620626f756e64730000000000000000000000000060448201526064016103a8565b815b6001600160a01b0382166000908152600460205260409020600190810154610cd39190611845565b811015610dd9576001600160a01b0382166000908152600460205260409020600190810190610d0390839061185e565b81548110610d1357610d13611871565b906000526020600020906004020160046000846001600160a01b03166001600160a01b031681526020019081526020016000206001018281548110610d5a57610d5a611871565b600091825260209091208254600490920201805473ffffffffffffffffffffffffffffffffffffffff19166001600160a01b0390921691909117815560018083015490820155600280830154908201556003918201549101805460ff909216151560ff1990921691909117905580610dd181611887565b915050610cab565b506001600160a01b0381166000908152600460205260409020600101805480610500576105006118a1565b604080516060810182526001600160a01b0384811682526020820184815260019383018490528354808501855560009490945282517fb10e2d527612073b26eecdfd717e6a320cf44b4afac2b0732d9fcbe2b7fa0cf66003909502948501805473ffffffffffffffffffffffffffffffffffffffff19169190931617825551919290917fb10e2d527612073b26eecdfd717e6a320cf44b4afac2b0732d9fcbe2b7fa0cf790910190610eb6908261194f565b50604091909101516002909101805460ff191691151591909117905560018054610ee09190611845565b6001600160a01b0390921660009081526002602052604090209190915550565b6001600160a01b03811660009081526004602090815260408083206001018054825181850281018501909352808352606094929391929091840182156108f6576000848152602090819020604080516080810182526004860290920180546001600160a01b03168352600180820154848601526002820154928401929092526003015460ff16151560608301529083529092019101610894565b6001600160a01b0381166000908152600460209081526040808320805482518185028101850190935280835260609485949293600185019390928592909184015b8282101561103d576000848152602090819020604080516080810182526004860290920180546001600160a01b03168352600180820154848601526002820154928401929092526003015460ff16151560608301529083529092019101610fdb565b50505050915080805480602002602001604051908101604052809291908181526020016000905b828210156110c6576000848152602090819020604080516080810182526004860290920180546001600160a01b03168352600180820154848601526002820154928401929092526003015460ff16151560608301529083529092019101611064565b50505050905091509150915091565b6110dd61143a565b6001600160a01b0381166111595760405162461bcd60e51b815260206004820152602660248201527f4f776e61626c653a206e6577206f776e657220697320746865207a65726f206160448201527f646472657373000000000000000000000000000000000000000000000000000060648201526084016103a8565b61116281611494565b50565b6001600160a01b038116600090815260046020526040902054158015906111a657506001600160a01b03811660009081526004602052604090206001015415155b15611162576001600160a01b0381166000908152600460205260408120805482906111d3576111d3611871565b600091825260208083206001600160a01b038616845260049182905260408420600101805492909302019350829061120d5761120d611871565b9060005260206000209060040201905080600201548260020154106114355760008390506000826001015484600101541061124c578260010154611252565b83600101545b90506000836002015485600201541061126f578360020154611275565b84600201545b85546040517fa9059cbb0000000000000000000000000000000000000000000000000000000081526001600160a01b0391821660048201526024810185905291925084169063a9059cbb906044016020604051808303816000875af11580156112e2573d6000803e3d6000fd5b505050506040513d601f19601f8201168201806040525081019061130691906118e7565b5060035484546040517fa9059cbb0000000000000000000000000000000000000000000000000000000081526001600160a01b0391821660048201526024810184905291169063a9059cbb906044016020604051808303816000875af1158015611374573d6000803e3d6000fd5b505050506040513d601f19601f8201168201806040525081019061139891906118e7565b50818560010160008282546113ad9190611845565b92505081905550818460010160008282546113c89190611845565b92505081905550808560020160008282546113e39190611845565b92505081905550808460020160008282546113fe9190611845565b9091555050600185015460000361141a5761141a600087610345565b836001015460000361143157611431600087610c3f565b5050505b505050565b6000546001600160a01b031633146109135760405162461bcd60e51b815260206004820181905260248201527f4f776e61626c653a2063616c6c6572206973206e6f7420746865206f776e657260448201526064016103a8565b600080546001600160a01b0383811673ffffffffffffffffffffffffffffffffffffffff19831681178455604051919092169283917f8be0079c531659141344cd1fd0a4f28419497f9722a3daafe3b4186f6b6457e09190a35050565b60006020808301818452808551808352604092508286019150828160051b8701018488016000805b848110156115c8577fffffffffffffffffffffffffffffffffffffffffffffffffffffffffffffffc08a8503018652825160606001600160a01b03825116865289820151818b880152805180838901528592505b8083101561158b578183018c015188840160800152918b019161156d565b608092508583828a0101528a84015193506115a98b89018515159052565b988b0198601f01601f1916969096010194505091870191600101611519565b50919998505050505050505050565b80356001600160a01b03811681146115ee57600080fd5b919050565b6000806040838503121561160657600080fd5b82359150611616602084016115d7565b90509250929050565b60008060006060848603121561163457600080fd5b833592506020840135915061164b604085016115d7565b90509250925092565b60006020828403121561166657600080fd5b61166f826115d7565b9392505050565b600081518084526020808501945080840160005b838110156116d157815180516001600160a01b031688528381015184890152604080820151908901526060908101511515908801526080909601959082019060010161168a565b509495945050505050565b60208152600061166f6020830184611676565b634e487b7160e01b600052604160045260246000fd5b6000806040838503121561171857600080fd5b611721836115d7565b9150602083013567ffffffffffffffff8082111561173e57600080fd5b818501915085601f83011261175257600080fd5b813581811115611764576117646116ef565b604051601f8201601f19908116603f0116810190838211818310171561178c5761178c6116ef565b816040528281528860208487010111156117a557600080fd5b8260208601602083013760006020848301015280955050505050509250929050565b6040815260006117da6040830185611676565b82810360208401526117ec8185611676565b95945050505050565b600181811c9082168061180957607f821691505b60208210810361182957634e487b7160e01b600052602260045260246000fd5b50919050565b634e487b7160e01b600052601160045260246000fd5b818103818111156118585761185861182f565b92915050565b808201808211156118585761185861182f565b634e487b7160e01b600052603260045260246000fd5b6000600019820361189a5761189a61182f565b5060010190565b634e487b7160e01b600052603160045260246000fd5b80820281158282048414176118585761185861182f565b6000602082840312156118e057600080fd5b5051919050565b6000602082840312156118f957600080fd5b8151801515811461166f57600080fd5b601f82111561143557600081815260208120601f850160051c810160208610156119305750805b601f850160051c820191505b818110156114315782815560010161193c565b815167ffffffffffffffff811115611969576119696116ef565b61197d8161197784546117f5565b84611909565b602080601f8311600181146119b2576000841561199a5750858301515b600019600386901b1c1916600185901b178555611431565b600085815260208120601f198616915b828110156119e1578886015182559484019460019091019084016119c2565b50858210156119ff5787850151600019600388901b60f8161c191681555b5050505050600190811b0190555056fea264697066735822122046b17fe7132599f2ae0cec2f02850f804c41a0b50be15d8142e9d38a50d9865564736f6c63430008130033",
  "linkReferences": {},
  "deployedLinkReferences": {}
}