{
  "_format": "hh-sol-artifact-1",
  "contractName": "Market",
  "sourceName": "contracts/Market.sol",
  "abi": [
    {
      "inputs": [
        {
          "internalType": "address",
          "name": "_usdt",
          "type": "address"
        }
      ],
      "stateMutability": "nonpayable",
      "type": "constructor"
    },
    {
      "anonymous": false,
      "inputs": [
        {
          "indexed": true,
          "internalType": "address",
          "name": "previousOwner",
          "type": "address"
        },
        {
          "indexed": true,
          "internalType": "address",
          "name": "newOwner",
          "type": "address"
        }
      ],
      "name": "OwnershipTransferred",
      "type": "event"
    },
    {
      "inputs": [
        {
          "internalType": "address",
          "name": "_tokenAddress",
          "type": "address"
        }
      ],
      "name": "getBuyOrders",
      "outputs": [
        {
          "components": [
            {
              "internalType": "address",
              "name": "trader",
              "type": "address"
            },
            {
              "internalType": "uint256",
              "name": "amount",
              "type": "uint256"
            },
            {
              "internalType": "uint256",
              "name": "totalValue",
              "type": "uint256"
            },
            {
              "internalType": "bool",
              "name": "isBuyOrder",
              "type": "bool"
            }
          ],
          "internalType": "struct Market.Order[]",
          "name": "",
          "type": "tuple[]"
        }
      ],
      "stateMutability": "view",
      "type": "function"
    },
    {
      "inputs": [
        {
          "internalType": "address",
          "name": "_tokenAddress",
          "type": "address"
        }
      ],
      "name": "getFullOrderBook",
      "outputs": [
        {
          "components": [
            {
              "internalType": "address",
              "name": "trader",
              "type": "address"
            },
            {
              "internalType": "uint256",
              "name": "amount",
              "type": "uint256"
            },
            {
              "internalType": "uint256",
              "name": "totalValue",
              "type": "uint256"
            },
            {
              "internalType": "bool",
              "name": "isBuyOrder",
              "type": "bool"
            }
          ],
          "internalType": "struct Market.Order[]",
          "name": "",
          "type": "tuple[]"
        },
        {
          "components": [
            {
              "internalType": "address",
              "name": "trader",
              "type": "address"
            },
            {
              "internalType": "uint256",
              "name": "amount",
              "type": "uint256"
            },
            {
              "internalType": "uint256",
              "name": "totalValue",
              "type": "uint256"
            },
            {
              "internalType": "bool",
              "name": "isBuyOrder",
              "type": "bool"
            }
          ],
          "internalType": "struct Market.Order[]",
          "name": "",
          "type": "tuple[]"
        }
      ],
      "stateMutability": "view",
      "type": "function"
    },
    {
      "inputs": [],
      "name": "getRegisteredTokens",
      "outputs": [
        {
          "components": [
            {
              "internalType": "address",
              "name": "tokenAddress",
              "type": "address"
            },
            {
              "internalType": "string",
              "name": "name",
              "type": "string"
            },
            {
              "internalType": "string",
              "name": "symbol",
              "type": "string"
            },
            {
              "internalType": "string",
              "name": "asset",
              "type": "string"
            },
            {
              "internalType": "bool",
              "name": "active",
              "type": "bool"
            }
          ],
          "internalType": "struct Market.RegisteredToken[]",
          "name": "",
          "type": "tuple[]"
        }
      ],
      "stateMutability": "view",
      "type": "function"
    },
    {
      "inputs": [
        {
          "internalType": "address",
          "name": "_tokenAddress",
          "type": "address"
        }
      ],
      "name": "getSellOrders",
      "outputs": [
        {
          "components": [
            {
              "internalType": "address",
              "name": "trader",
              "type": "address"
            },
            {
              "internalType": "uint256",
              "name": "amount",
              "type": "uint256"
            },
            {
              "internalType": "uint256",
              "name": "totalValue",
              "type": "uint256"
            },
            {
              "internalType": "bool",
              "name": "isBuyOrder",
              "type": "bool"
            }
          ],
          "internalType": "struct Market.Order[]",
          "name": "",
          "type": "tuple[]"
        }
      ],
      "stateMutability": "view",
      "type": "function"
    },
    {
      "inputs": [],
      "name": "owner",
      "outputs": [
        {
          "internalType": "address",
          "name": "",
          "type": "address"
        }
      ],
      "stateMutability": "view",
      "type": "function"
    },
    {
      "inputs": [
        {
          "internalType": "uint256",
          "name": "_amount",
          "type": "uint256"
        },
        {
          "internalType": "uint256",
          "name": "_price",
          "type": "uint256"
        },
        {
          "internalType": "address",
          "name": "_tokenAddress",
          "type": "address"
        }
      ],
      "name": "placeBuyOrder",
      "outputs": [],
      "stateMutability": "nonpayable",
      "type": "function"
    },
    {
      "inputs": [
        {
          "internalType": "uint256",
          "name": "_amount",
          "type": "uint256"
        },
        {
          "internalType": "uint256",
          "name": "_price",
          "type": "uint256"
        },
        {
          "internalType": "address",
          "name": "_tokenAddress",
          "type": "address"
        }
      ],
      "name": "placeSellOrder",
      "outputs": [],
      "stateMutability": "nonpayable",
      "type": "function"
    },
    {
      "inputs": [
        {
          "internalType": "address",
          "name": "_tokenAddress",
          "type": "address"
        },
        {
          "internalType": "string",
          "name": "_name",
          "type": "string"
        },
        {
          "internalType": "string",
          "name": "_symbol",
          "type": "string"
        },
        {
          "internalType": "string",
          "name": "_asset",
          "type": "string"
        }
      ],
      "name": "registerToken",
      "outputs": [],
      "stateMutability": "nonpayable",
      "type": "function"
    },
    {
      "inputs": [
        {
          "internalType": "uint256",
          "name": "index",
          "type": "uint256"
        },
        {
          "internalType": "address",
          "name": "_tokenAddress",
          "type": "address"
        }
      ],
      "name": "removeBuyOrder",
      "outputs": [],
      "stateMutability": "nonpayable",
      "type": "function"
    },
    {
      "inputs": [
        {
          "internalType": "uint256",
          "name": "index",
          "type": "uint256"
        },
        {
          "internalType": "address",
          "name": "_tokenAddress",
          "type": "address"
        }
      ],
      "name": "removeSellOrder",
      "outputs": [],
      "stateMutability": "nonpayable",
      "type": "function"
    },
    {
      "inputs": [],
      "name": "renounceOwnership",
      "outputs": [],
      "stateMutability": "nonpayable",
      "type": "function"
    },
    {
      "inputs": [
        {
          "internalType": "address",
          "name": "newOwner",
          "type": "address"
        }
      ],
      "name": "transferOwnership",
      "outputs": [],
      "stateMutability": "nonpayable",
      "type": "function"
    },
    {
      "inputs": [
        {
          "internalType": "address",
          "name": "_tokenAddress",
          "type": "address"
        }
      ],
      "name": "unregisterToken",
      "outputs": [],
      "stateMutability": "nonpayable",
      "type": "function"
    },
    {
      "inputs": [],
      "name": "usdt",
      "outputs": [
        {
          "internalType": "contract IERC20",
          "name": "",
          "type": "address"
        }
      ],
      "stateMutability": "view",
      "type": "function"
    }
  ],
  "bytecode": "0x608060405234801561001057600080fd5b5060405162001d3938038062001d39833981016040819052610031916100af565b61003a3361005f565b600380546001600160a01b0319166001600160a01b03929092169190911790556100df565b600080546001600160a01b038381166001600160a01b0319831681178455604051919092169283917f8be0079c531659141344cd1fd0a4f28419497f9722a3daafe3b4186f6b6457e09190a35050565b6000602082840312156100c157600080fd5b81516001600160a01b03811681146100d857600080fd5b9392505050565b611c4a80620000ef6000396000f3fe608060405234801561001057600080fd5b50600436106100ea5760003560e01c806377860cdd1161008c578063bad61ccb11610066578063bad61ccb146101d2578063eac92f2a146101e5578063ed8f219d146101f8578063f2fde38b1461021957600080fd5b806377860cdd1461019b5780638da5cb5b146101ae578063922b0b7d146101bf57600080fd5b806342020b68116100c857806342020b681461014d5780634412f0f314610160578063551f7a5014610173578063715018a61461019357600080fd5b80630c48da2d146100ef57806314cbd993146101045780632f48ab7d14610122575b600080fd5b6101026100fd366004611711565b61022c565b005b61010c610363565b60405161011991906117f0565b60405180910390f35b600354610135906001600160a01b031681565b6040516001600160a01b039091168152602001610119565b61010261015b3660046118d0565b6105a0565b61010261016e3660046118fc565b6107ab565b610186610181366004611931565b610ab7565b60405161011991906119b9565b610102610b5c565b6101026101a9366004611931565b610b70565b6000546001600160a01b0316610135565b6101026101cd3660046118fc565b610c64565b6101026101e03660046118d0565b610e9c565b6101866101f3366004611931565b611061565b61020b610206366004611931565b6110fb565b6040516101199291906119cc565b610102610227366004611931565b611236565b6040805160a0810182526001600160a01b03868116825260208201868152928201859052606082018490526001608083018190528054808201825560009190915282517fb10e2d527612073b26eecdfd717e6a320cf44b4afac2b0732d9fcbe2b7fa0cf66005909202918201805473ffffffffffffffffffffffffffffffffffffffff1916919093161782559251919290917fb10e2d527612073b26eecdfd717e6a320cf44b4afac2b0732d9fcbe2b7fa0cf7909101906102ed9082611a7a565b50604082015160028201906103029082611a7a565b50606082015160038201906103179082611a7a565b50608091909101516004909101805460ff1916911515919091179055600180546103419190611b50565b6001600160a01b03909416600090815260026020526040902093909355505050565b60606001805480602002602001604051908101604052809291908181526020016000905b828210156105975760008481526020908190206040805160a081019091526005850290910180546001600160a01b0316825260018101805492939192918401916103d0906119fa565b80601f01602080910402602001604051908101604052809291908181526020018280546103fc906119fa565b80156104495780601f1061041e57610100808354040283529160200191610449565b820191906000526020600020905b81548152906001019060200180831161042c57829003601f168201915b50505050508152602001600282018054610462906119fa565b80601f016020809104026020016040519081016040528092919081815260200182805461048e906119fa565b80156104db5780601f106104b0576101008083540402835291602001916104db565b820191906000526020600020905b8154815290600101906020018083116104be57829003601f168201915b505050505081526020016003820180546104f4906119fa565b80601f0160208091040260200160405190810160405280929190818152602001828054610520906119fa565b801561056d5780601f106105425761010080835404028352916020019161056d565b820191906000526020600020905b81548152906001019060200180831161055057829003601f168201915b50505091835250506004919091015460ff1615156020918201529082526001929092019101610387565b50505050905090565b6001600160a01b038116600090815260046020526040902054821061060c5760405162461bcd60e51b815260206004820152601360248201527f496e646578206f7574206f6620626f756e64730000000000000000000000000060448201526064015b60405180910390fd5b815b6001600160a01b03821660009081526004602052604090205461063390600190611b50565b811015610733576001600160a01b038216600090815260046020526040902061065d826001611b69565b8154811061066d5761066d611b7c565b906000526020600020906004020160046000846001600160a01b03166001600160a01b0316815260200190815260200160002060000182815481106106b4576106b4611b7c565b600091825260209091208254600490920201805473ffffffffffffffffffffffffffffffffffffffff19166001600160a01b0390921691909117815560018083015490820155600280830154908201556003918201549101805460ff909216151560ff199092169190911790558061072b81611b92565b91505061060e565b506001600160a01b038116600090815260046020526040902080548061075b5761075b611bac565b600082815260208120600460001990930192830201805473ffffffffffffffffffffffffffffffffffffffff19168155600181018290556002810191909155600301805460ff1916905590555050565b6001600160a01b03811660008181526002602052604090205460018054919291839081106107db576107db611b7c565b60009182526020909120600590910201546001600160a01b031614801561082857506001818154811061081057610810611b7c565b600091825260209091206004600590920201015460ff165b61089a5760405162461bcd60e51b815260206004820152602260248201527f546f6b656e206e6f742072656769737465726564206f72206e6f74206163746960448201527f76650000000000000000000000000000000000000000000000000000000000006064820152608401610603565b60006108a68585611bc2565b6003546040517f70a0823100000000000000000000000000000000000000000000000000000000815233600482015291925082916001600160a01b03909116906370a0823190602401602060405180830381865afa15801561090c573d6000803e3d6000fd5b505050506040513d601f19601f820116820180604052508101906109309190611bd9565b101561097e5760405162461bcd60e51b815260206004820152601960248201527f496e73756666696369656e7420555344542062616c616e6365000000000000006044820152606401610603565b6003546040517f23b872dd000000000000000000000000000000000000000000000000000000008152336004820152306024820152604481018390526001600160a01b03909116906323b872dd906064016020604051808303816000875af11580156109ee573d6000803e3d6000fd5b505050506040513d601f19601f82011682018060405250810190610a129190611bf2565b506001600160a01b03838116600090815260046020818152604080842081516080810183523381528084018c8152928101888152600160608301818152845480830186559489529590972091519290950201805473ffffffffffffffffffffffffffffffffffffffff1916919096161785555192840192909255516002830155516003909101805460ff1916911515919091179055610ab0836112c6565b5050505050565b6001600160a01b0381166000908152600460209081526040808320805482518185028101850190935280835260609492939192909184015b82821015610b51576000848152602090819020604080516080810182526004860290920180546001600160a01b03168352600180820154848601526002820154928401929092526003015460ff16151560608301529083529092019101610aef565b505050509050919050565b610b6461159b565b610b6e60006115f5565b565b610b7861159b565b6001600160a01b0381166000818152600260205260409020546001805491929183908110610ba857610ba8611b7c565b60009182526020909120600590910201546001600160a01b031614610c0f5760405162461bcd60e51b815260206004820152601460248201527f546f6b656e206e6f7420726567697374657265640000000000000000000000006044820152606401610603565b600060018281548110610c2457610c24611b7c565b60009182526020808320600592909202909101600401805460ff1916931515939093179092556001600160a01b0393909316835260029052506040812055565b806000610c718585611bc2565b6040517f70a0823100000000000000000000000000000000000000000000000000000000815233600482015290915085906001600160a01b038416906370a0823190602401602060405180830381865afa158015610cd3573d6000803e3d6000fd5b505050506040513d601f19601f82011682018060405250810190610cf79190611bd9565b1015610d6b5760405162461bcd60e51b815260206004820152602360248201527f496e73756666696369656e7420536563757269747920546f6b656e2062616c6160448201527f6e636500000000000000000000000000000000000000000000000000000000006064820152608401610603565b6040517f23b872dd000000000000000000000000000000000000000000000000000000008152336004820152306024820152604481018690526001600160a01b038316906323b872dd906064016020604051808303816000875af1158015610dd7573d6000803e3d6000fd5b505050506040513d601f19601f82011682018060405250810190610dfb9190611bf2565b506001600160a01b03838116600090815260046020818152604080842081516080810183523381528084018c8152928101888152606082018781526001938401805480860182559089529590972091519490950201805473ffffffffffffffffffffffffffffffffffffffff1916939096169290921785555190840155516002830155516003909101805460ff1916911515919091179055610ab0836112c6565b6001600160a01b0381166000908152600460205260409020600101548210610f065760405162461bcd60e51b815260206004820152601360248201527f496e646578206f7574206f6620626f756e6473000000000000000000000000006044820152606401610603565b815b6001600160a01b0382166000908152600460205260409020600190810154610f309190611b50565b811015611036576001600160a01b0382166000908152600460205260409020600190810190610f60908390611b69565b81548110610f7057610f70611b7c565b906000526020600020906004020160046000846001600160a01b03166001600160a01b031681526020019081526020016000206001018281548110610fb757610fb7611b7c565b600091825260209091208254600490920201805473ffffffffffffffffffffffffffffffffffffffff19166001600160a01b0390921691909117815560018083015490820155600280830154908201556003918201549101805460ff909216151560ff199092169190911790558061102e81611b92565b915050610f08565b506001600160a01b038116600090815260046020526040902060010180548061075b5761075b611bac565b6001600160a01b0381166000908152600460209081526040808320600101805482518185028101850190935280835260609492939192909184018215610b51576000848152602090819020604080516080810182526004860290920180546001600160a01b03168352600180820154848601526002820154928401929092526003015460ff16151560608301529083529092019101610aef565b6001600160a01b0381166000908152600460209081526040808320805482518185028101850190935280835260609485949293600185019390928592909184015b8282101561119e576000848152602090819020604080516080810182526004860290920180546001600160a01b03168352600180820154848601526002820154928401929092526003015460ff1615156060830152908352909201910161113c565b50505050915080805480602002602001604051908101604052809291908181526020016000905b82821015611227576000848152602090819020604080516080810182526004860290920180546001600160a01b03168352600180820154848601526002820154928401929092526003015460ff161515606083015290835290920191016111c5565b50505050905091509150915091565b61123e61159b565b6001600160a01b0381166112ba5760405162461bcd60e51b815260206004820152602660248201527f4f776e61626c653a206e6577206f776e657220697320746865207a65726f206160448201527f64647265737300000000000000000000000000000000000000000000000000006064820152608401610603565b6112c3816115f5565b50565b6001600160a01b0381166000908152600460205260409020541580159061130757506001600160a01b03811660009081526004602052604090206001015415155b156112c3576001600160a01b03811660009081526004602052604081208054829061133457611334611b7c565b600091825260208083206001600160a01b038616845260049182905260408420600101805492909302019350829061136e5761136e611b7c565b906000526020600020906004020190508060020154826002015410611596576000839050600082600101548460010154106113ad5782600101546113b3565b83600101545b9050600083600201548560020154106113d05783600201546113d6565b84600201545b85546040517fa9059cbb0000000000000000000000000000000000000000000000000000000081526001600160a01b0391821660048201526024810185905291925084169063a9059cbb906044016020604051808303816000875af1158015611443573d6000803e3d6000fd5b505050506040513d601f19601f820116820180604052508101906114679190611bf2565b5060035484546040517fa9059cbb0000000000000000000000000000000000000000000000000000000081526001600160a01b0391821660048201526024810184905291169063a9059cbb906044016020604051808303816000875af11580156114d5573d6000803e3d6000fd5b505050506040513d601f19601f820116820180604052508101906114f99190611bf2565b508185600101600082825461150e9190611b50565b92505081905550818460010160008282546115299190611b50565b92505081905550808560020160008282546115449190611b50565b925050819055508084600201600082825461155f9190611b50565b9091555050600185015460000361157b5761157b6000876105a0565b836001015460000361159257611592600087610e9c565b5050505b505050565b6000546001600160a01b03163314610b6e5760405162461bcd60e51b815260206004820181905260248201527f4f776e61626c653a2063616c6c6572206973206e6f7420746865206f776e65726044820152606401610603565b600080546001600160a01b0383811673ffffffffffffffffffffffffffffffffffffffff19831681178455604051919092169283917f8be0079c531659141344cd1fd0a4f28419497f9722a3daafe3b4186f6b6457e09190a35050565b80356001600160a01b038116811461166957600080fd5b919050565b634e487b7160e01b600052604160045260246000fd5b600082601f83011261169557600080fd5b813567ffffffffffffffff808211156116b0576116b061166e565b604051601f8301601f19908116603f011681019082821181831017156116d8576116d861166e565b816040528381528660208588010111156116f157600080fd5b836020870160208301376000602085830101528094505050505092915050565b6000806000806080858703121561172757600080fd5b61173085611652565b9350602085013567ffffffffffffffff8082111561174d57600080fd5b61175988838901611684565b9450604087013591508082111561176f57600080fd5b61177b88838901611684565b9350606087013591508082111561179157600080fd5b5061179e87828801611684565b91505092959194509250565b6000815180845260005b818110156117d0576020818501810151868301820152016117b4565b506000602082860101526020601f19601f83011685010191505092915050565b60006020808301818452808551808352604092508286019150828160051b87010184880160005b838110156118c2577fffffffffffffffffffffffffffffffffffffffffffffffffffffffffffffffc0898403018552815160a06001600160a01b03825116855288820151818a87015261186c828701826117aa565b915050878201518582038987015261188482826117aa565b9150506060808301518683038288015261189e83826117aa565b60809485015115159790940196909652505094870194925090860190600101611817565b509098975050505050505050565b600080604083850312156118e357600080fd5b823591506118f360208401611652565b90509250929050565b60008060006060848603121561191157600080fd5b833592506020840135915061192860408501611652565b90509250925092565b60006020828403121561194357600080fd5b61194c82611652565b9392505050565b600081518084526020808501945080840160005b838110156119ae57815180516001600160a01b0316885283810151848901526040808201519089015260609081015115159088015260809096019590820190600101611967565b509495945050505050565b60208152600061194c6020830184611953565b6040815260006119df6040830185611953565b82810360208401526119f18185611953565b95945050505050565b600181811c90821680611a0e57607f821691505b602082108103611a2e57634e487b7160e01b600052602260045260246000fd5b50919050565b601f82111561159657600081815260208120601f850160051c81016020861015611a5b5750805b601f850160051c820191505b8181101561159257828155600101611a67565b815167ffffffffffffffff811115611a9457611a9461166e565b611aa881611aa284546119fa565b84611a34565b602080601f831160018114611add5760008415611ac55750858301515b600019600386901b1c1916600185901b178555611592565b600085815260208120601f198616915b82811015611b0c57888601518255948401946001909101908401611aed565b5085821015611b2a5787850151600019600388901b60f8161c191681555b5050505050600190811b01905550565b634e487b7160e01b600052601160045260246000fd5b81810381811115611b6357611b63611b3a565b92915050565b80820180821115611b6357611b63611b3a565b634e487b7160e01b600052603260045260246000fd5b60006000198203611ba557611ba5611b3a565b5060010190565b634e487b7160e01b600052603160045260246000fd5b8082028115828204841417611b6357611b63611b3a565b600060208284031215611beb57600080fd5b5051919050565b600060208284031215611c0457600080fd5b8151801515811461194c57600080fdfea2646970667358221220bca9236a54c4225bcefd67e3fa978b6dfe8ca15e266610f6d6a8790fdbce054764736f6c63430008130033",
  "linkReferences": {},
  "deployedLinkReferences": {}
}