{
  "_format": "hh-sol-artifact-1",
  "contractName": "Market",
  "sourceName": "contracts/Market.sol",
  "abi": [
    {
      "inputs": [
        {
          "internalType": "address",
          "name": "_usdt",
          "type": "address"
        }
      ],
      "stateMutability": "nonpayable",
      "type": "constructor"
    },
    {
      "inputs": [
        {
          "internalType": "address",
          "name": "_tokenAddress",
          "type": "address"
        }
      ],
      "name": "getBuyOrders",
      "outputs": [
        {
          "components": [
            {
              "internalType": "address",
              "name": "trader",
              "type": "address"
            },
            {
              "internalType": "uint256",
              "name": "amount",
              "type": "uint256"
            },
            {
              "internalType": "uint256",
              "name": "totalValue",
              "type": "uint256"
            },
            {
              "internalType": "bool",
              "name": "isBuyOrder",
              "type": "bool"
            }
          ],
          "internalType": "struct Market.Order[]",
          "name": "",
          "type": "tuple[]"
        }
      ],
      "stateMutability": "view",
      "type": "function"
    },
    {
      "inputs": [
        {
          "internalType": "address",
          "name": "_tokenAddress",
          "type": "address"
        }
      ],
      "name": "getFullOrderBook",
      "outputs": [
        {
          "components": [
            {
              "internalType": "address",
              "name": "trader",
              "type": "address"
            },
            {
              "internalType": "uint256",
              "name": "amount",
              "type": "uint256"
            },
            {
              "internalType": "uint256",
              "name": "totalValue",
              "type": "uint256"
            },
            {
              "internalType": "bool",
              "name": "isBuyOrder",
              "type": "bool"
            }
          ],
          "internalType": "struct Market.Order[]",
          "name": "",
          "type": "tuple[]"
        },
        {
          "components": [
            {
              "internalType": "address",
              "name": "trader",
              "type": "address"
            },
            {
              "internalType": "uint256",
              "name": "amount",
              "type": "uint256"
            },
            {
              "internalType": "uint256",
              "name": "totalValue",
              "type": "uint256"
            },
            {
              "internalType": "bool",
              "name": "isBuyOrder",
              "type": "bool"
            }
          ],
          "internalType": "struct Market.Order[]",
          "name": "",
          "type": "tuple[]"
        }
      ],
      "stateMutability": "view",
      "type": "function"
    },
    {
      "inputs": [
        {
          "internalType": "address",
          "name": "_tokenAddress",
          "type": "address"
        }
      ],
      "name": "getSellOrders",
      "outputs": [
        {
          "components": [
            {
              "internalType": "address",
              "name": "trader",
              "type": "address"
            },
            {
              "internalType": "uint256",
              "name": "amount",
              "type": "uint256"
            },
            {
              "internalType": "uint256",
              "name": "totalValue",
              "type": "uint256"
            },
            {
              "internalType": "bool",
              "name": "isBuyOrder",
              "type": "bool"
            }
          ],
          "internalType": "struct Market.Order[]",
          "name": "",
          "type": "tuple[]"
        }
      ],
      "stateMutability": "view",
      "type": "function"
    },
    {
      "inputs": [
        {
          "internalType": "uint256",
          "name": "_amount",
          "type": "uint256"
        },
        {
          "internalType": "uint256",
          "name": "_price",
          "type": "uint256"
        },
        {
          "internalType": "address",
          "name": "_tokenAddress",
          "type": "address"
        }
      ],
      "name": "placeBuyOrder",
      "outputs": [],
      "stateMutability": "nonpayable",
      "type": "function"
    },
    {
      "inputs": [
        {
          "internalType": "uint256",
          "name": "_amount",
          "type": "uint256"
        },
        {
          "internalType": "uint256",
          "name": "_price",
          "type": "uint256"
        },
        {
          "internalType": "address",
          "name": "_tokenAddress",
          "type": "address"
        }
      ],
      "name": "placeSellOrder",
      "outputs": [],
      "stateMutability": "nonpayable",
      "type": "function"
    },
    {
      "inputs": [
        {
          "internalType": "uint256",
          "name": "index",
          "type": "uint256"
        },
        {
          "internalType": "address",
          "name": "_tokenAddress",
          "type": "address"
        }
      ],
      "name": "removeBuyOrder",
      "outputs": [],
      "stateMutability": "nonpayable",
      "type": "function"
    },
    {
      "inputs": [
        {
          "internalType": "uint256",
          "name": "index",
          "type": "uint256"
        },
        {
          "internalType": "address",
          "name": "_tokenAddress",
          "type": "address"
        }
      ],
      "name": "removeSellOrder",
      "outputs": [],
      "stateMutability": "nonpayable",
      "type": "function"
    },
    {
      "inputs": [],
      "name": "usdt",
      "outputs": [
        {
          "internalType": "contract IERC20",
          "name": "",
          "type": "address"
        }
      ],
      "stateMutability": "view",
      "type": "function"
    }
  ],
  "bytecode": "0x608060405234801561001057600080fd5b5060405161122838038061122883398101604081905261002f91610054565b600080546001600160a01b0319166001600160a01b0392909216919091179055610084565b60006020828403121561006657600080fd5b81516001600160a01b038116811461007d57600080fd5b9392505050565b611195806100936000396000f3fe608060405234801561001057600080fd5b50600436106100885760003560e01c8063922b0b7d1161005b578063922b0b7d14610105578063bad61ccb14610118578063eac92f2a1461012b578063ed8f219d1461013e57600080fd5b80632f48ab7d1461008d57806342020b68146100bd5780634412f0f3146100d2578063551f7a50146100e5575b600080fd5b6000546100a0906001600160a01b031681565b6040516001600160a01b0390911681526020015b60405180910390f35b6100d06100cb366004610f10565b61015f565b005b6100d06100e0366004610f3c565b61036f565b6100f86100f3366004610f71565b61058b565b6040516100b49190610ff9565b6100d0610113366004610f3c565b610630565b6100d0610126366004610f10565b610872565b6100f8610139366004610f71565b610a39565b61015161014c366004610f71565b610ad2565b6040516100b492919061100c565b6001600160a01b03811660009081526001602052604090205482106101cb5760405162461bcd60e51b815260206004820152601360248201527f496e646578206f7574206f6620626f756e64730000000000000000000000000060448201526064015b60405180910390fd5b815b6001600160a01b0382166000908152600160208190526040909120546101f39190611069565b8110156102f7576001600160a01b038216600090815260016020819052604090912090610221908390611082565b8154811061023157610231611095565b906000526020600020906004020160016000846001600160a01b03166001600160a01b03168152602001908152602001600020600001828154811061027857610278611095565b600091825260209091208254600490920201805473ffffffffffffffffffffffffffffffffffffffff19166001600160a01b0390921691909117815560018083015490820155600280830154908201556003918201549101805460ff909216151560ff19909216919091179055806102ef816110c4565b9150506101cd565b506001600160a01b038116600090815260016020526040902080548061031f5761031f6110de565b600082815260208120600460001990930192830201805473ffffffffffffffffffffffffffffffffffffffff19168155600181018290556002810191909155600301805460ff1916905590555050565b600061037b848461110d565b6000546040517f70a0823100000000000000000000000000000000000000000000000000000000815233600482015291925082916001600160a01b03909116906370a0823190602401602060405180830381865afa1580156103e1573d6000803e3d6000fd5b505050506040513d601f19601f820116820180604052508101906104059190611124565b10156104535760405162461bcd60e51b815260206004820152601960248201527f496e73756666696369656e7420555344542062616c616e63650000000000000060448201526064016101c2565b6000546040517f23b872dd000000000000000000000000000000000000000000000000000000008152336004820152306024820152604481018390526001600160a01b03909116906323b872dd906064016020604051808303816000875af11580156104c3573d6000803e3d6000fd5b505050506040513d601f19601f820116820180604052508101906104e7919061113d565b506001600160a01b03828116600090815260016020818152604080842081516080810183523381528084018b81529281018881526060820186815283548088018555938852949096209051600490920201805473ffffffffffffffffffffffffffffffffffffffff191691909616178555519184019190915590516002830155516003909101805460ff191691151591909117905561058582610c0b565b50505050565b6001600160a01b0381166000908152600160209081526040808320805482518185028101850190935280835260609492939192909184015b82821015610625576000848152602090819020604080516080810182526004860290920180546001600160a01b03168352600180820154848601526002820154928401929092526003015460ff161515606083015290835290920191016105c3565b505050509050919050565b80600061063d858561110d565b6040517f70a0823100000000000000000000000000000000000000000000000000000000815233600482015290915085906001600160a01b038416906370a0823190602401602060405180830381865afa15801561069f573d6000803e3d6000fd5b505050506040513d601f19601f820116820180604052508101906106c39190611124565b10156107375760405162461bcd60e51b815260206004820152602360248201527f496e73756666696369656e7420536563757269747920546f6b656e2062616c6160448201527f6e6365000000000000000000000000000000000000000000000000000000000060648201526084016101c2565b6040517f23b872dd000000000000000000000000000000000000000000000000000000008152336004820152306024820152604481018690526001600160a01b038316906323b872dd906064016020604051808303816000875af11580156107a3573d6000803e3d6000fd5b505050506040513d601f19601f820116820180604052508101906107c7919061113d565b506001600160a01b03838116600090815260016020818152604080842081516080810183523381528084018c81529281018881526060820187815292860180548088018255908852949096209051600490940201805473ffffffffffffffffffffffffffffffffffffffff191693909616929092178555519184019190915590516002830155516003909101805460ff191691151591909117905561086b83610c0b565b5050505050565b6001600160a01b0381166000908152600160208190526040909120015482106108dd5760405162461bcd60e51b815260206004820152601360248201527f496e646578206f7574206f6620626f756e64730000000000000000000000000060448201526064016101c2565b815b6001600160a01b03821660009081526001602081905260409091208101546109079190611069565b811015610a0d576001600160a01b0382166000908152600160208190526040909120810190610937908390611082565b8154811061094757610947611095565b906000526020600020906004020160016000846001600160a01b03166001600160a01b03168152602001908152602001600020600101828154811061098e5761098e611095565b600091825260209091208254600490920201805473ffffffffffffffffffffffffffffffffffffffff19166001600160a01b0390921691909117815560018083015490820155600280830154908201556003918201549101805460ff909216151560ff1990921691909117905580610a05816110c4565b9150506108df565b506001600160a01b03811660009081526001602081905260409091200180548061031f5761031f6110de565b6001600160a01b03811660009081526001602081815260408084209092018054835181840281018401909452808452606094919290919084018215610625576000848152602090819020604080516080810182526004860290920180546001600160a01b03168352600180820154848601526002820154928401929092526003015460ff161515606083015290835290920191016105c3565b6001600160a01b038116600090815260016020818152604080842080548251818502810185019093528083526060958695929492850193928592919084015b82821015610b73576000848152602090819020604080516080810182526004860290920180546001600160a01b03168352600180820154848601526002820154928401929092526003015460ff16151560608301529083529092019101610b11565b50505050915080805480602002602001604051908101604052809291908181526020016000905b82821015610bfc576000848152602090819020604080516080810182526004860290920180546001600160a01b03168352600180820154848601526002820154928401929092526003015460ff16151560608301529083529092019101610b9a565b50505050905091509150915091565b6001600160a01b03811660009081526001602052604090205415801590610c4d57506001600160a01b0381166000908152600160208190526040909120015415155b15610ef1576001600160a01b038116600090815260016020526040812080548290610c7a57610c7a611095565b90600052602060002090600402019050600060016000846001600160a01b03166001600160a01b03168152602001908152602001600020600101600081548110610cc657610cc6611095565b906000526020600020906004020190508060020154826002015410610eee57600083905060008260010154846001015410610d05578260010154610d0b565b83600101545b905060008360020154856002015410610d28578360020154610d2e565b84600201545b85546040517fa9059cbb0000000000000000000000000000000000000000000000000000000081526001600160a01b0391821660048201526024810185905291925084169063a9059cbb906044016020604051808303816000875af1158015610d9b573d6000803e3d6000fd5b505050506040513d601f19601f82011682018060405250810190610dbf919061113d565b5060005484546040517fa9059cbb0000000000000000000000000000000000000000000000000000000081526001600160a01b0391821660048201526024810184905291169063a9059cbb906044016020604051808303816000875af1158015610e2d573d6000803e3d6000fd5b505050506040513d601f19601f82011682018060405250810190610e51919061113d565b5081856001016000828254610e669190611069565b9250508190555081846001016000828254610e819190611069565b9250508190555080856002016000828254610e9c9190611069565b9250508190555080846002016000828254610eb79190611069565b90915550506001850154600003610ed357610ed360008761015f565b8360010154600003610eea57610eea600087610872565b5050505b50505b50565b80356001600160a01b0381168114610f0b57600080fd5b919050565b60008060408385031215610f2357600080fd5b82359150610f3360208401610ef4565b90509250929050565b600080600060608486031215610f5157600080fd5b8335925060208401359150610f6860408501610ef4565b90509250925092565b600060208284031215610f8357600080fd5b610f8c82610ef4565b9392505050565b600081518084526020808501945080840160005b83811015610fee57815180516001600160a01b0316885283810151848901526040808201519089015260609081015115159088015260809096019590820190600101610fa7565b509495945050505050565b602081526000610f8c6020830184610f93565b60408152600061101f6040830185610f93565b82810360208401526110318185610f93565b95945050505050565b7f4e487b7100000000000000000000000000000000000000000000000000000000600052601160045260246000fd5b8181038181111561107c5761107c61103a565b92915050565b8082018082111561107c5761107c61103a565b7f4e487b7100000000000000000000000000000000000000000000000000000000600052603260045260246000fd5b600060001982036110d7576110d761103a565b5060010190565b7f4e487b7100000000000000000000000000000000000000000000000000000000600052603160045260246000fd5b808202811582820484141761107c5761107c61103a565b60006020828403121561113657600080fd5b5051919050565b60006020828403121561114f57600080fd5b81518015158114610f8c57600080fdfea2646970667358221220bdb1516ea84999cf8a407e9d696eaf40e8c5f42b4ac36082edbccb34d00a644c64736f6c63430008130033",
  "linkReferences": {},
  "deployedLinkReferences": {}
}