{
  "_format": "hh-sol-artifact-1",
  "contractName": "SecurityToken",
  "sourceName": "contracts/SecurityToken.sol",
  "abi": [
    {
      "inputs": [
        {
          "internalType": "string",
          "name": "_name",
          "type": "string"
        },
        {
          "internalType": "string",
          "name": "_symbol",
          "type": "string"
        },
        {
          "internalType": "string",
          "name": "_asset",
          "type": "string"
        },
        {
          "internalType": "string",
          "name": "_docURL",
          "type": "string"
        }
      ],
      "stateMutability": "nonpayable",
      "type": "constructor"
    },
    {
      "anonymous": false,
      "inputs": [
        {
          "indexed": true,
          "internalType": "address",
          "name": "owner",
          "type": "address"
        },
        {
          "indexed": true,
          "internalType": "address",
          "name": "spender",
          "type": "address"
        },
        {
          "indexed": false,
          "internalType": "uint256",
          "name": "value",
          "type": "uint256"
        }
      ],
      "name": "Approval",
      "type": "event"
    },
    {
      "anonymous": false,
      "inputs": [
        {
          "indexed": true,
          "internalType": "address",
          "name": "previousOwner",
          "type": "address"
        },
        {
          "indexed": true,
          "internalType": "address",
          "name": "newOwner",
          "type": "address"
        }
      ],
      "name": "OwnershipTransferred",
      "type": "event"
    },
    {
      "anonymous": false,
      "inputs": [
        {
          "indexed": true,
          "internalType": "address",
          "name": "from",
          "type": "address"
        },
        {
          "indexed": true,
          "internalType": "address",
          "name": "to",
          "type": "address"
        },
        {
          "indexed": false,
          "internalType": "uint256",
          "name": "value",
          "type": "uint256"
        }
      ],
      "name": "Transfer",
      "type": "event"
    },
    {
      "inputs": [],
      "name": "MAX_VESTING_ENTRIES",
      "outputs": [
        {
          "internalType": "uint256",
          "name": "",
          "type": "uint256"
        }
      ],
      "stateMutability": "view",
      "type": "function"
    },
    {
      "inputs": [
        {
          "internalType": "address",
          "name": "_address",
          "type": "address"
        }
      ],
      "name": "addManager",
      "outputs": [],
      "stateMutability": "nonpayable",
      "type": "function"
    },
    {
      "inputs": [
        {
          "internalType": "address",
          "name": "account",
          "type": "address"
        }
      ],
      "name": "addToBlacklist",
      "outputs": [],
      "stateMutability": "nonpayable",
      "type": "function"
    },
    {
      "inputs": [
        {
          "internalType": "address",
          "name": "owner",
          "type": "address"
        },
        {
          "internalType": "address",
          "name": "spender",
          "type": "address"
        }
      ],
      "name": "allowance",
      "outputs": [
        {
          "internalType": "uint256",
          "name": "",
          "type": "uint256"
        }
      ],
      "stateMutability": "view",
      "type": "function"
    },
    {
      "inputs": [
        {
          "internalType": "address",
          "name": "spender",
          "type": "address"
        },
        {
          "internalType": "uint256",
          "name": "amount",
          "type": "uint256"
        }
      ],
      "name": "approve",
      "outputs": [
        {
          "internalType": "bool",
          "name": "",
          "type": "bool"
        }
      ],
      "stateMutability": "nonpayable",
      "type": "function"
    },
    {
      "inputs": [
        {
          "internalType": "address",
          "name": "account",
          "type": "address"
        }
      ],
      "name": "balanceOf",
      "outputs": [
        {
          "internalType": "uint256",
          "name": "",
          "type": "uint256"
        }
      ],
      "stateMutability": "view",
      "type": "function"
    },
    {
      "inputs": [
        {
          "internalType": "address",
          "name": "",
          "type": "address"
        }
      ],
      "name": "blacklist",
      "outputs": [
        {
          "internalType": "bool",
          "name": "",
          "type": "bool"
        }
      ],
      "stateMutability": "view",
      "type": "function"
    },
    {
      "inputs": [],
      "name": "decimals",
      "outputs": [
        {
          "internalType": "uint8",
          "name": "",
          "type": "uint8"
        }
      ],
      "stateMutability": "view",
      "type": "function"
    },
    {
      "inputs": [
        {
          "internalType": "address",
          "name": "spender",
          "type": "address"
        },
        {
          "internalType": "uint256",
          "name": "subtractedValue",
          "type": "uint256"
        }
      ],
      "name": "decreaseAllowance",
      "outputs": [
        {
          "internalType": "bool",
          "name": "",
          "type": "bool"
        }
      ],
      "stateMutability": "nonpayable",
      "type": "function"
    },
    {
      "inputs": [],
      "name": "document",
      "outputs": [
        {
          "internalType": "string",
          "name": "",
          "type": "string"
        }
      ],
      "stateMutability": "view",
      "type": "function"
    },
    {
      "inputs": [],
      "name": "getAssetId",
      "outputs": [
        {
          "internalType": "string",
          "name": "",
          "type": "string"
        }
      ],
      "stateMutability": "view",
      "type": "function"
    },
    {
      "inputs": [],
      "name": "getDocument",
      "outputs": [
        {
          "internalType": "string",
          "name": "",
          "type": "string"
        }
      ],
      "stateMutability": "view",
      "type": "function"
    },
    {
      "inputs": [],
      "name": "getNumberOfPartitions",
      "outputs": [
        {
          "internalType": "uint256",
          "name": "",
          "type": "uint256"
        }
      ],
      "stateMutability": "view",
      "type": "function"
    },
    {
      "inputs": [
        {
          "internalType": "address",
          "name": "tokenHolder",
          "type": "address"
        }
      ],
      "name": "getNumberOfPartitionsOf",
      "outputs": [
        {
          "internalType": "uint256",
          "name": "",
          "type": "uint256"
        }
      ],
      "stateMutability": "view",
      "type": "function"
    },
    {
      "inputs": [],
      "name": "getUnlockedBalance",
      "outputs": [
        {
          "internalType": "uint256",
          "name": "",
          "type": "uint256"
        }
      ],
      "stateMutability": "view",
      "type": "function"
    },
    {
      "inputs": [
        {
          "internalType": "address",
          "name": "tokenHolder",
          "type": "address"
        }
      ],
      "name": "getUnlockedBalanceOf",
      "outputs": [
        {
          "internalType": "uint256",
          "name": "",
          "type": "uint256"
        }
      ],
      "stateMutability": "view",
      "type": "function"
    },
    {
      "inputs": [
        {
          "internalType": "address",
          "name": "tokenHolder",
          "type": "address"
        }
      ],
      "name": "getVestingScheduleOf",
      "outputs": [
        {
          "components": [
            {
              "internalType": "uint256",
              "name": "unlockTime",
              "type": "uint256"
            },
            {
              "internalType": "uint256",
              "name": "amount",
              "type": "uint256"
            }
          ],
          "internalType": "struct ISecurityToken.VestingEntry[]",
          "name": "",
          "type": "tuple[]"
        }
      ],
      "stateMutability": "view",
      "type": "function"
    },
    {
      "inputs": [
        {
          "internalType": "address",
          "name": "spender",
          "type": "address"
        },
        {
          "internalType": "uint256",
          "name": "addedValue",
          "type": "uint256"
        }
      ],
      "name": "increaseAllowance",
      "outputs": [
        {
          "internalType": "bool",
          "name": "",
          "type": "bool"
        }
      ],
      "stateMutability": "nonpayable",
      "type": "function"
    },
    {
      "inputs": [
        {
          "internalType": "address",
          "name": "",
          "type": "address"
        }
      ],
      "name": "managers",
      "outputs": [
        {
          "internalType": "bool",
          "name": "",
          "type": "bool"
        }
      ],
      "stateMutability": "view",
      "type": "function"
    },
    {
      "inputs": [
        {
          "internalType": "address",
          "name": "account",
          "type": "address"
        },
        {
          "internalType": "uint256",
          "name": "amount",
          "type": "uint256"
        },
        {
          "internalType": "uint256[]",
          "name": "vestingAmounts",
          "type": "uint256[]"
        },
        {
          "internalType": "uint256[]",
          "name": "vestingUnlockTimes",
          "type": "uint256[]"
        }
      ],
      "name": "mint",
      "outputs": [],
      "stateMutability": "nonpayable",
      "type": "function"
    },
    {
      "inputs": [],
      "name": "name",
      "outputs": [
        {
          "internalType": "string",
          "name": "",
          "type": "string"
        }
      ],
      "stateMutability": "view",
      "type": "function"
    },
    {
      "inputs": [],
      "name": "owner",
      "outputs": [
        {
          "internalType": "address",
          "name": "",
          "type": "address"
        }
      ],
      "stateMutability": "view",
      "type": "function"
    },
    {
      "inputs": [
        {
          "internalType": "address",
          "name": "account",
          "type": "address"
        }
      ],
      "name": "removeFromBlacklist",
      "outputs": [],
      "stateMutability": "nonpayable",
      "type": "function"
    },
    {
      "inputs": [
        {
          "internalType": "address",
          "name": "_address",
          "type": "address"
        }
      ],
      "name": "removeManager",
      "outputs": [],
      "stateMutability": "nonpayable",
      "type": "function"
    },
    {
      "inputs": [],
      "name": "renounceOwnership",
      "outputs": [],
      "stateMutability": "nonpayable",
      "type": "function"
    },
    {
      "inputs": [],
      "name": "symbol",
      "outputs": [
        {
          "internalType": "string",
          "name": "",
          "type": "string"
        }
      ],
      "stateMutability": "view",
      "type": "function"
    },
    {
      "inputs": [],
      "name": "totalSupply",
      "outputs": [
        {
          "internalType": "uint256",
          "name": "",
          "type": "uint256"
        }
      ],
      "stateMutability": "view",
      "type": "function"
    },
    {
      "inputs": [
        {
          "internalType": "address",
          "name": "to",
          "type": "address"
        },
        {
          "internalType": "uint256",
          "name": "amount",
          "type": "uint256"
        }
      ],
      "name": "transfer",
      "outputs": [
        {
          "internalType": "bool",
          "name": "",
          "type": "bool"
        }
      ],
      "stateMutability": "nonpayable",
      "type": "function"
    },
    {
      "inputs": [
        {
          "internalType": "address",
          "name": "from",
          "type": "address"
        },
        {
          "internalType": "address",
          "name": "to",
          "type": "address"
        },
        {
          "internalType": "uint256",
          "name": "amount",
          "type": "uint256"
        }
      ],
      "name": "transferFrom",
      "outputs": [
        {
          "internalType": "bool",
          "name": "",
          "type": "bool"
        }
      ],
      "stateMutability": "nonpayable",
      "type": "function"
    },
    {
      "inputs": [
        {
          "internalType": "address",
          "name": "newOwner",
          "type": "address"
        }
      ],
      "name": "transferOwnership",
      "outputs": [],
      "stateMutability": "nonpayable",
      "type": "function"
    },
    {
      "inputs": [
        {
          "internalType": "string",
          "name": "_uri",
          "type": "string"
        }
      ],
      "name": "updateDocument",
      "outputs": [],
      "stateMutability": "nonpayable",
      "type": "function"
    },
    {
      "inputs": [
        {
          "internalType": "address",
          "name": "account",
          "type": "address"
        }
      ],
      "name": "updateUnlockedBalance",
      "outputs": [],
      "stateMutability": "nonpayable",
      "type": "function"
    }
  ],
  "bytecode": "0x6080604052600780546001600160a01b0319167391238558ff6a66955d65d1063d8d9fe014df6f051790553480156200003757600080fd5b5060405162002356380380620023568339810160408190526200005a916200021a565b838360036200006a838262000362565b50600462000079828262000362565b5050506200009662000090620000ff60201b60201c565b62000103565b600160066000620000af6005546001600160a01b031690565b6001600160a01b031681526020810191909152604001600020805460ff19169115159190911790556008620000e5838262000362565b50600d620000f4828262000362565b50505050506200042e565b3390565b600580546001600160a01b038381166001600160a01b0319831681179093556040519116919082907f8be0079c531659141344cd1fd0a4f28419497f9722a3daafe3b4186f6b6457e090600090a35050565b634e487b7160e01b600052604160045260246000fd5b600082601f8301126200017d57600080fd5b81516001600160401b03808211156200019a576200019a62000155565b604051601f8301601f19908116603f01168101908282118183101715620001c557620001c562000155565b81604052838152602092508683858801011115620001e257600080fd5b600091505b83821015620002065785820183015181830184015290820190620001e7565b600093810190920192909252949350505050565b600080600080608085870312156200023157600080fd5b84516001600160401b03808211156200024957600080fd5b62000257888389016200016b565b955060208701519150808211156200026e57600080fd5b6200027c888389016200016b565b945060408701519150808211156200029357600080fd5b620002a1888389016200016b565b93506060870151915080821115620002b857600080fd5b50620002c7878288016200016b565b91505092959194509250565b600181811c90821680620002e857607f821691505b6020821081036200030957634e487b7160e01b600052602260045260246000fd5b50919050565b601f8211156200035d57600081815260208120601f850160051c81016020861015620003385750805b601f850160051c820191505b81811015620003595782815560010162000344565b5050505b505050565b81516001600160401b038111156200037e576200037e62000155565b62000396816200038f8454620002d3565b846200030f565b602080601f831160018114620003ce5760008415620003b55750858301515b600019600386901b1c1916600185901b17855562000359565b600085815260208120601f198616915b82811015620003ff57888601518255948401946001909101908401620003de565b50858210156200041e5787850151600019600388901b60f8161c191681555b5050505050600190811b01905550565b611f18806200043e6000396000f3fe608060405234801561001057600080fd5b50600436106101f05760003560e01c8063742bcfb91161010f578063ac18de43116100a2578063dd62ed3e11610071578063dd62ed3e1461040a578063f2fde38b14610443578063f9f92be414610456578063fdff9b4d1461047957600080fd5b8063ac18de43146103df578063b6f3f14d146103f2578063d0cc82e3146103fa578063d6e2280c1461040257600080fd5b8063978311e8116100de578063978311e8146103935780639f316dcc146103a6578063a457c2d7146103b9578063a9059cbb146103cc57600080fd5b8063742bcfb91461033d5780637e04ec84146103505780638da5cb5b1461037057806395d89b411461038b57600080fd5b806334dc6aa811610187578063537df3b611610156578063537df3b6146102d05780636e08b196146102e357806370a082311461030c578063715018a61461033557600080fd5b806334dc6aa81461028f57806339509351146102a257806339e845e6146102b557806344337ea1146102bd57600080fd5b806323b872dd116101c357806323b872dd14610250578063267b0798146102635780632d06177a1461026b578063313ce5671461028057600080fd5b806306fdde03146101f5578063095ea7b31461021357806318160ddd146102365780631f4339d814610248575b600080fd5b6101fd61049c565b60405161020a91906119ca565b60405180910390f35b610226610221366004611a34565b61052e565b604051901515815260200161020a565b6002545b60405190815260200161020a565b6101fd610548565b61022661025e366004611a5e565b6105d6565b61023a61080b565b61027e610279366004611a9a565b6108bd565b005b6040516012815260200161020a565b61027e61029d366004611b03565b6108e9565b6102266102b0366004611a34565b61097e565b61023a6109bd565b61027e6102cb366004611a9a565b6109c8565b61027e6102de366004611a9a565b610a71565b61023a6102f1366004611a9a565b6001600160a01b03166000908152600a602052604090205490565b61023a61031a366004611a9a565b6001600160a01b031660009081526020819052604090205490565b61027e610b17565b61023a61034b366004611a9a565b610b2b565b61036361035e366004611a9a565b610bd6565b60405161020a9190611b98565b6005546040516001600160a01b03909116815260200161020a565b6101fd610c5f565b61027e6103a1366004611c67565b610c6e565b61027e6103b4366004611a9a565b610f9f565b6102266103c7366004611a34565b611154565b6102266103da366004611a34565b611209565b61027e6103ed366004611a9a565b611397565b6101fd6113c0565b61023a600581565b6101fd6113cf565b61023a610418366004611ce5565b6001600160a01b03918216600090815260016020908152604080832093909416825291909152205490565b61027e610451366004611a9a565b6113de565b610226610464366004611a9a565b60096020526000908152604090205460ff1681565b610226610487366004611a9a565b60066020526000908152604090205460ff1681565b6060600380546104ab90611d18565b80601f01602080910402602001604051908101604052809291908181526020018280546104d790611d18565b80156105245780601f106104f957610100808354040283529160200191610524565b820191906000526020600020905b81548152906001019060200180831161050757829003601f168201915b5050505050905090565b60003361053c81858561146b565b60019150505b92915050565b600d805461055590611d18565b80601f016020809104026020016040519081016040528092919081815260200182805461058190611d18565b80156105ce5780601f106105a3576101008083540402835291602001916105ce565b820191906000526020600020905b8154815290600101906020018083116105b157829003601f168201915b505050505081565b6001600160a01b038216600090815260096020526040812054839060ff161561066c5760405162461bcd60e51b815260206004820152602560248201527f5365637572697479546f6b656e3a206163636f756e7420697320626c61636b6c60448201527f697374656400000000000000000000000000000000000000000000000000000060648201526084015b60405180910390fd5b6001600160a01b038516600090815260096020526040902054859060ff16156106fd5760405162461bcd60e51b815260206004820152602560248201527f5365637572697479546f6b656e3a206163636f756e7420697320626c61636b6c60448201527f69737465640000000000000000000000000000000000000000000000000000006064820152608401610663565b6001600160a01b03861633146107a45761071686610f9f565b6001600160a01b0386166000908152600b60205260409020548411156107a45760405162461bcd60e51b815260206004820152603760248201527f5365637572697479546f6b656e3a207472616e7366657220616d6f756e74206560448201527f78636565647320756e6c6f636b65642062616c616e63650000000000000000006064820152608401610663565b336107b08782876115c3565b6107bb878787611655565b6007546001600160a01b038881169116146107fe576001600160a01b0387166000908152600b6020526040812080548792906107f8908490611d68565b90915550505b5060019695505050505050565b336000908152600c6020526040812054600510156108915760405162461bcd60e51b815260206004820152602a60248201527f5365637572697479546f6b656e3a20546f6f206d616e792076657374696e672060448201527f7363686564756c65732e000000000000000000000000000000000000000000006064820152608401610663565b600b6000335b6001600160a01b03166001600160a01b0316815260200190815260200160002054905090565b6108c5611842565b6001600160a01b03166000908152600660205260409020805460ff19166001179055565b3360009081526006602052604090205460ff1661096e5760405162461bcd60e51b815260206004820152602b60248201527f4f6e6c7920746f6b656e206d616e61676572732063616e20706572666f726d2060448201527f7468697320616374696f6e0000000000000000000000000000000000000000006064820152608401610663565b600d61097a8282611dc9565b5050565b3360008181526001602090815260408083206001600160a01b038716845290915281205490919061053c90829086906109b8908790611e89565b61146b565b6000600a8133610897565b3360009081526006602052604090205460ff16610a4d5760405162461bcd60e51b815260206004820152602b60248201527f4f6e6c7920746f6b656e206d616e61676572732063616e20706572666f726d2060448201527f7468697320616374696f6e0000000000000000000000000000000000000000006064820152608401610663565b6001600160a01b03166000908152600960205260409020805460ff19166001179055565b3360009081526006602052604090205460ff16610af65760405162461bcd60e51b815260206004820152602b60248201527f4f6e6c7920746f6b656e206d616e61676572732063616e20706572666f726d2060448201527f7468697320616374696f6e0000000000000000000000000000000000000000006064820152608401610663565b6001600160a01b03166000908152600960205260409020805460ff19169055565b610b1f611842565b610b29600061189c565b565b6001600160a01b0381166000908152600c602052604081205460051015610bba5760405162461bcd60e51b815260206004820152602a60248201527f5365637572697479546f6b656e3a20546f6f206d616e792076657374696e672060448201527f7363686564756c65732e000000000000000000000000000000000000000000006064820152608401610663565b506001600160a01b03166000908152600b602052604090205490565b6001600160a01b0381166000908152600c60209081526040808320805482518185028101850190935280835260609492939192909184015b82821015610c5457838290600052602060002090600202016040518060400160405290816000820154815260200160018201548152505081526020019060010190610c0e565b505050509050919050565b6060600480546104ab90611d18565b3360009081526006602052604090205460ff16610cf35760405162461bcd60e51b815260206004820152602b60248201527f4f6e6c7920746f6b656e206d616e61676572732063616e20706572666f726d2060448201527f7468697320616374696f6e0000000000000000000000000000000000000000006064820152608401610663565b81516001600160a01b0385166000908152600c6020526040902054600591610d1a91611e89565b1115610d8e5760405162461bcd60e51b815260206004820152603960248201527f5365637572697479546f6b656e3a206578636565646564206d6178696d756d2060448201527f6e756d626572206f662076657374696e6720656e7472696573000000000000006064820152608401610663565b8051825114610e055760405162461bcd60e51b815260206004820152603760248201527f5365637572697479546f6b656e3a2076657374696e6720617272617973206d7560448201527f73742068617665207468652073616d65206c656e6774680000000000000000006064820152608401610663565b6000805b8351811015610e4b57838181518110610e2457610e24611e9c565b602002602001015182610e379190611e89565b915080610e4381611eb2565b915050610e09565b50808414610ec3576040805162461bcd60e51b81526020600482015260248101919091527f5365637572697479546f6b656e3a20746f74616c2076657374696e6720616d6f60448201527f756e74206d75737420657175616c20746f74616c206d696e7420616d6f756e746064820152608401610663565b610ecd8585611906565b60005b8351811015610f735760006040518060400160405280858481518110610ef857610ef8611e9c565b60200260200101518152602001868481518110610f1757610f17611e9c565b6020908102919091018101519091526001600160a01b0389166000908152600c82526040812080546001818101835591835291839020845160029093020191825592909101519101555080610f6b81611eb2565b915050610ed0565b5082516001600160a01b0386166000908152600a6020526040902055610f9885610f9f565b5050505050565b6001600160a01b0381166000908152600c602052604090205415611151576001600160a01b0381166000908152600c6020526040812080548290610fe557610fe5611e9c565b906000526020600020906002020190508060000154421061097a5760018101546001600160a01b0383166000908152600b60205260408120805490919061102d908490611e89565b90915550600090505b6001600160a01b0383166000908152600c602052604090205461105b90600190611d68565b811015611109576001600160a01b0383166000908152600c60205260409020611085826001611e89565b8154811061109557611095611e9c565b9060005260206000209060020201600c6000856001600160a01b03166001600160a01b0316815260200190815260200160002082815481106110d9576110d9611e9c565b6000918252602090912082546002909202019081556001918201549101558061110181611eb2565b915050611036565b506001600160a01b0382166000908152600c6020526040902080548061113157611131611ecc565b600082815260208120600260001990930192830201818155600101559055505b50565b3360008181526001602090815260408083206001600160a01b0387168452909152812054909190838110156111f15760405162461bcd60e51b815260206004820152602560248201527f45524332303a2064656372656173656420616c6c6f77616e63652062656c6f7760448201527f207a65726f0000000000000000000000000000000000000000000000000000006064820152608401610663565b6111fe828686840361146b565b506001949350505050565b6001600160a01b038216600090815260096020526040812054839060ff161561129a5760405162461bcd60e51b815260206004820152602560248201527f5365637572697479546f6b656e3a206163636f756e7420697320626c61636b6c60448201527f69737465640000000000000000000000000000000000000000000000000000006064820152608401610663565b6007546001600160a01b0316336001600160a01b031614611343576112be33610f9f565b336000908152600b60205260409020548311156113435760405162461bcd60e51b815260206004820152603760248201527f5365637572697479546f6b656e3a207472616e7366657220616d6f756e74206560448201527f78636565647320756e6c6f636b65642062616c616e63650000000000000000006064820152608401610663565b61134e338585611655565b6007546001600160a01b0316336001600160a01b03161461053c57336000908152600b602052604081208054859290611388908490611d68565b90915550600195945050505050565b61139f611842565b6001600160a01b03166000908152600660205260409020805460ff19169055565b6060600d80546104ab90611d18565b6060600880546104ab90611d18565b6113e6611842565b6001600160a01b0381166114625760405162461bcd60e51b815260206004820152602660248201527f4f776e61626c653a206e6577206f776e657220697320746865207a65726f206160448201527f64647265737300000000000000000000000000000000000000000000000000006064820152608401610663565b6111518161189c565b6001600160a01b0383166114e65760405162461bcd60e51b8152602060048201526024808201527f45524332303a20617070726f76652066726f6d20746865207a65726f2061646460448201527f72657373000000000000000000000000000000000000000000000000000000006064820152608401610663565b6001600160a01b0382166115625760405162461bcd60e51b815260206004820152602260248201527f45524332303a20617070726f766520746f20746865207a65726f20616464726560448201527f73730000000000000000000000000000000000000000000000000000000000006064820152608401610663565b6001600160a01b0383811660008181526001602090815260408083209487168084529482529182902085905590518481527f8c5be1e5ebec7d5bd14f71427d1e84f3dd0314c0f7b2291e5b200ac8c7c3b925910160405180910390a3505050565b6001600160a01b03838116600090815260016020908152604080832093861683529290522054600019811461164f57818110156116425760405162461bcd60e51b815260206004820152601d60248201527f45524332303a20696e73756666696369656e7420616c6c6f77616e63650000006044820152606401610663565b61164f848484840361146b565b50505050565b6001600160a01b0383166116d15760405162461bcd60e51b815260206004820152602560248201527f45524332303a207472616e736665722066726f6d20746865207a65726f20616460448201527f64726573730000000000000000000000000000000000000000000000000000006064820152608401610663565b6001600160a01b03821661174d5760405162461bcd60e51b815260206004820152602360248201527f45524332303a207472616e7366657220746f20746865207a65726f206164647260448201527f65737300000000000000000000000000000000000000000000000000000000006064820152608401610663565b6001600160a01b038316600090815260208190526040902054818110156117dc5760405162461bcd60e51b815260206004820152602660248201527f45524332303a207472616e7366657220616d6f756e742065786365656473206260448201527f616c616e636500000000000000000000000000000000000000000000000000006064820152608401610663565b6001600160a01b03848116600081815260208181526040808320878703905593871680835291849020805487019055925185815290927fddf252ad1be2c89b69c2b068fc378daa952ba7f163c4a11628f55a4df523b3ef910160405180910390a361164f565b6005546001600160a01b03163314610b295760405162461bcd60e51b815260206004820181905260248201527f4f776e61626c653a2063616c6c6572206973206e6f7420746865206f776e65726044820152606401610663565b600580546001600160a01b038381167fffffffffffffffffffffffff0000000000000000000000000000000000000000831681179093556040519116919082907f8be0079c531659141344cd1fd0a4f28419497f9722a3daafe3b4186f6b6457e090600090a35050565b6001600160a01b03821661195c5760405162461bcd60e51b815260206004820152601f60248201527f45524332303a206d696e7420746f20746865207a65726f2061646472657373006044820152606401610663565b806002600082825461196e9190611e89565b90915550506001600160a01b038216600081815260208181526040808320805486019055518481527fddf252ad1be2c89b69c2b068fc378daa952ba7f163c4a11628f55a4df523b3ef910160405180910390a35050565b505050565b600060208083528351808285015260005b818110156119f7578581018301518582016040015282016119db565b506000604082860101526040601f19601f8301168501019250505092915050565b80356001600160a01b0381168114611a2f57600080fd5b919050565b60008060408385031215611a4757600080fd5b611a5083611a18565b946020939093013593505050565b600080600060608486031215611a7357600080fd5b611a7c84611a18565b9250611a8a60208501611a18565b9150604084013590509250925092565b600060208284031215611aac57600080fd5b611ab582611a18565b9392505050565b634e487b7160e01b600052604160045260246000fd5b604051601f8201601f1916810167ffffffffffffffff81118282101715611afb57611afb611abc565b604052919050565b60006020808385031215611b1657600080fd5b823567ffffffffffffffff80821115611b2e57600080fd5b818501915085601f830112611b4257600080fd5b813581811115611b5457611b54611abc565b611b6684601f19601f84011601611ad2565b91508082528684828501011115611b7c57600080fd5b8084840185840137600090820190930192909252509392505050565b602080825282518282018190526000919060409081850190868401855b82811015611bda57815180518552860151868501529284019290850190600101611bb5565b5091979650505050505050565b600082601f830112611bf857600080fd5b8135602067ffffffffffffffff821115611c1457611c14611abc565b8160051b611c23828201611ad2565b9283528481018201928281019087851115611c3d57600080fd5b83870192505b84831015611c5c57823582529183019190830190611c43565b979650505050505050565b60008060008060808587031215611c7d57600080fd5b611c8685611a18565b935060208501359250604085013567ffffffffffffffff80821115611caa57600080fd5b611cb688838901611be7565b93506060870135915080821115611ccc57600080fd5b50611cd987828801611be7565b91505092959194509250565b60008060408385031215611cf857600080fd5b611d0183611a18565b9150611d0f60208401611a18565b90509250929050565b600181811c90821680611d2c57607f821691505b602082108103611d4c57634e487b7160e01b600052602260045260246000fd5b50919050565b634e487b7160e01b600052601160045260246000fd5b8181038181111561054257610542611d52565b601f8211156119c557600081815260208120601f850160051c81016020861015611da25750805b601f850160051c820191505b81811015611dc157828155600101611dae565b505050505050565b815167ffffffffffffffff811115611de357611de3611abc565b611df781611df18454611d18565b84611d7b565b602080601f831160018114611e2c5760008415611e145750858301515b600019600386901b1c1916600185901b178555611dc1565b600085815260208120601f198616915b82811015611e5b57888601518255948401946001909101908401611e3c565b5085821015611e795787850151600019600388901b60f8161c191681555b5050505050600190811b01905550565b8082018082111561054257610542611d52565b634e487b7160e01b600052603260045260246000fd5b60006000198203611ec557611ec5611d52565b5060010190565b634e487b7160e01b600052603160045260246000fdfea2646970667358221220a08a817cdf00fc11217d1dc35e7aff8add6f213ef1cb14b8ddcdd61935b7c63c64736f6c63430008130033",
  "linkReferences": {},
  "deployedLinkReferences": {}
}