{
  "_format": "hh-sol-artifact-1",
  "contractName": "SecurityToken",
  "sourceName": "contracts/SecurityToken.sol",
  "abi": [
    {
      "inputs": [
        {
          "internalType": "string",
          "name": "_name",
          "type": "string"
        },
        {
          "internalType": "string",
          "name": "_symbol",
          "type": "string"
        },
        {
          "internalType": "string",
          "name": "_asset",
          "type": "string"
        },
        {
          "internalType": "string",
          "name": "_docURL",
          "type": "string"
        }
      ],
      "stateMutability": "nonpayable",
      "type": "constructor"
    },
    {
      "anonymous": false,
      "inputs": [
        {
          "indexed": true,
          "internalType": "address",
          "name": "owner",
          "type": "address"
        },
        {
          "indexed": true,
          "internalType": "address",
          "name": "spender",
          "type": "address"
        },
        {
          "indexed": false,
          "internalType": "uint256",
          "name": "value",
          "type": "uint256"
        }
      ],
      "name": "Approval",
      "type": "event"
    },
    {
      "anonymous": false,
      "inputs": [
        {
          "indexed": true,
          "internalType": "address",
          "name": "previousOwner",
          "type": "address"
        },
        {
          "indexed": true,
          "internalType": "address",
          "name": "newOwner",
          "type": "address"
        }
      ],
      "name": "OwnershipTransferred",
      "type": "event"
    },
    {
      "anonymous": false,
      "inputs": [
        {
          "indexed": true,
          "internalType": "address",
          "name": "from",
          "type": "address"
        },
        {
          "indexed": true,
          "internalType": "address",
          "name": "to",
          "type": "address"
        },
        {
          "indexed": false,
          "internalType": "uint256",
          "name": "value",
          "type": "uint256"
        }
      ],
      "name": "Transfer",
      "type": "event"
    },
    {
      "inputs": [],
      "name": "MAX_VESTING_ENTRIES",
      "outputs": [
        {
          "internalType": "uint256",
          "name": "",
          "type": "uint256"
        }
      ],
      "stateMutability": "view",
      "type": "function"
    },
    {
      "inputs": [
        {
          "internalType": "address",
          "name": "_address",
          "type": "address"
        }
      ],
      "name": "addManager",
      "outputs": [],
      "stateMutability": "nonpayable",
      "type": "function"
    },
    {
      "inputs": [
        {
          "internalType": "address",
          "name": "account",
          "type": "address"
        }
      ],
      "name": "addToBlacklist",
      "outputs": [],
      "stateMutability": "nonpayable",
      "type": "function"
    },
    {
      "inputs": [
        {
          "internalType": "address",
          "name": "owner",
          "type": "address"
        },
        {
          "internalType": "address",
          "name": "spender",
          "type": "address"
        }
      ],
      "name": "allowance",
      "outputs": [
        {
          "internalType": "uint256",
          "name": "",
          "type": "uint256"
        }
      ],
      "stateMutability": "view",
      "type": "function"
    },
    {
      "inputs": [
        {
          "internalType": "address",
          "name": "spender",
          "type": "address"
        },
        {
          "internalType": "uint256",
          "name": "amount",
          "type": "uint256"
        }
      ],
      "name": "approve",
      "outputs": [
        {
          "internalType": "bool",
          "name": "",
          "type": "bool"
        }
      ],
      "stateMutability": "nonpayable",
      "type": "function"
    },
    {
      "inputs": [
        {
          "internalType": "address",
          "name": "account",
          "type": "address"
        }
      ],
      "name": "balanceOf",
      "outputs": [
        {
          "internalType": "uint256",
          "name": "",
          "type": "uint256"
        }
      ],
      "stateMutability": "view",
      "type": "function"
    },
    {
      "inputs": [
        {
          "internalType": "address",
          "name": "",
          "type": "address"
        }
      ],
      "name": "blacklist",
      "outputs": [
        {
          "internalType": "bool",
          "name": "",
          "type": "bool"
        }
      ],
      "stateMutability": "view",
      "type": "function"
    },
    {
      "inputs": [],
      "name": "decimals",
      "outputs": [
        {
          "internalType": "uint8",
          "name": "",
          "type": "uint8"
        }
      ],
      "stateMutability": "view",
      "type": "function"
    },
    {
      "inputs": [
        {
          "internalType": "address",
          "name": "spender",
          "type": "address"
        },
        {
          "internalType": "uint256",
          "name": "subtractedValue",
          "type": "uint256"
        }
      ],
      "name": "decreaseAllowance",
      "outputs": [
        {
          "internalType": "bool",
          "name": "",
          "type": "bool"
        }
      ],
      "stateMutability": "nonpayable",
      "type": "function"
    },
    {
      "inputs": [],
      "name": "document",
      "outputs": [
        {
          "internalType": "string",
          "name": "",
          "type": "string"
        }
      ],
      "stateMutability": "view",
      "type": "function"
    },
    {
      "inputs": [],
      "name": "getAssetId",
      "outputs": [
        {
          "internalType": "string",
          "name": "",
          "type": "string"
        }
      ],
      "stateMutability": "view",
      "type": "function"
    },
    {
      "inputs": [],
      "name": "getDocument",
      "outputs": [
        {
          "internalType": "string",
          "name": "",
          "type": "string"
        }
      ],
      "stateMutability": "view",
      "type": "function"
    },
    {
      "inputs": [],
      "name": "getNumberOfPartitions",
      "outputs": [
        {
          "internalType": "uint256",
          "name": "",
          "type": "uint256"
        }
      ],
      "stateMutability": "view",
      "type": "function"
    },
    {
      "inputs": [
        {
          "internalType": "address",
          "name": "tokenHolder",
          "type": "address"
        }
      ],
      "name": "getNumberOfPartitionsOf",
      "outputs": [
        {
          "internalType": "uint256",
          "name": "",
          "type": "uint256"
        }
      ],
      "stateMutability": "view",
      "type": "function"
    },
    {
      "inputs": [],
      "name": "getUnlockedBalance",
      "outputs": [
        {
          "internalType": "uint256",
          "name": "",
          "type": "uint256"
        }
      ],
      "stateMutability": "view",
      "type": "function"
    },
    {
      "inputs": [
        {
          "internalType": "address",
          "name": "tokenHolder",
          "type": "address"
        }
      ],
      "name": "getUnlockedBalanceOf",
      "outputs": [
        {
          "internalType": "uint256",
          "name": "",
          "type": "uint256"
        }
      ],
      "stateMutability": "view",
      "type": "function"
    },
    {
      "inputs": [
        {
          "internalType": "address",
          "name": "tokenHolder",
          "type": "address"
        }
      ],
      "name": "getVestingScheduleOf",
      "outputs": [
        {
          "components": [
            {
              "internalType": "uint256",
              "name": "unlockTime",
              "type": "uint256"
            },
            {
              "internalType": "uint256",
              "name": "amount",
              "type": "uint256"
            }
          ],
          "internalType": "struct ISecurityToken.VestingEntry[]",
          "name": "",
          "type": "tuple[]"
        }
      ],
      "stateMutability": "view",
      "type": "function"
    },
    {
      "inputs": [
        {
          "internalType": "address",
          "name": "spender",
          "type": "address"
        },
        {
          "internalType": "uint256",
          "name": "addedValue",
          "type": "uint256"
        }
      ],
      "name": "increaseAllowance",
      "outputs": [
        {
          "internalType": "bool",
          "name": "",
          "type": "bool"
        }
      ],
      "stateMutability": "nonpayable",
      "type": "function"
    },
    {
      "inputs": [
        {
          "internalType": "address",
          "name": "",
          "type": "address"
        }
      ],
      "name": "managers",
      "outputs": [
        {
          "internalType": "bool",
          "name": "",
          "type": "bool"
        }
      ],
      "stateMutability": "view",
      "type": "function"
    },
    {
      "inputs": [
        {
          "internalType": "address",
          "name": "account",
          "type": "address"
        },
        {
          "internalType": "uint256",
          "name": "amount",
          "type": "uint256"
        },
        {
          "internalType": "uint256[]",
          "name": "vestingAmounts",
          "type": "uint256[]"
        },
        {
          "internalType": "uint256[]",
          "name": "vestingUnlockTimes",
          "type": "uint256[]"
        }
      ],
      "name": "mint",
      "outputs": [],
      "stateMutability": "nonpayable",
      "type": "function"
    },
    {
      "inputs": [],
      "name": "name",
      "outputs": [
        {
          "internalType": "string",
          "name": "",
          "type": "string"
        }
      ],
      "stateMutability": "view",
      "type": "function"
    },
    {
      "inputs": [],
      "name": "owner",
      "outputs": [
        {
          "internalType": "address",
          "name": "",
          "type": "address"
        }
      ],
      "stateMutability": "view",
      "type": "function"
    },
    {
      "inputs": [
        {
          "internalType": "address",
          "name": "account",
          "type": "address"
        }
      ],
      "name": "removeFromBlacklist",
      "outputs": [],
      "stateMutability": "nonpayable",
      "type": "function"
    },
    {
      "inputs": [
        {
          "internalType": "address",
          "name": "_address",
          "type": "address"
        }
      ],
      "name": "removeManager",
      "outputs": [],
      "stateMutability": "nonpayable",
      "type": "function"
    },
    {
      "inputs": [],
      "name": "renounceOwnership",
      "outputs": [],
      "stateMutability": "nonpayable",
      "type": "function"
    },
    {
      "inputs": [],
      "name": "symbol",
      "outputs": [
        {
          "internalType": "string",
          "name": "",
          "type": "string"
        }
      ],
      "stateMutability": "view",
      "type": "function"
    },
    {
      "inputs": [],
      "name": "totalSupply",
      "outputs": [
        {
          "internalType": "uint256",
          "name": "",
          "type": "uint256"
        }
      ],
      "stateMutability": "view",
      "type": "function"
    },
    {
      "inputs": [
        {
          "internalType": "address",
          "name": "to",
          "type": "address"
        },
        {
          "internalType": "uint256",
          "name": "amount",
          "type": "uint256"
        }
      ],
      "name": "transfer",
      "outputs": [
        {
          "internalType": "bool",
          "name": "",
          "type": "bool"
        }
      ],
      "stateMutability": "nonpayable",
      "type": "function"
    },
    {
      "inputs": [
        {
          "internalType": "address",
          "name": "from",
          "type": "address"
        },
        {
          "internalType": "address",
          "name": "to",
          "type": "address"
        },
        {
          "internalType": "uint256",
          "name": "amount",
          "type": "uint256"
        }
      ],
      "name": "transferFrom",
      "outputs": [
        {
          "internalType": "bool",
          "name": "",
          "type": "bool"
        }
      ],
      "stateMutability": "nonpayable",
      "type": "function"
    },
    {
      "inputs": [
        {
          "internalType": "address",
          "name": "newOwner",
          "type": "address"
        }
      ],
      "name": "transferOwnership",
      "outputs": [],
      "stateMutability": "nonpayable",
      "type": "function"
    },
    {
      "inputs": [
        {
          "internalType": "string",
          "name": "_uri",
          "type": "string"
        }
      ],
      "name": "updateDocument",
      "outputs": [],
      "stateMutability": "nonpayable",
      "type": "function"
    },
    {
      "inputs": [
        {
          "internalType": "address",
          "name": "account",
          "type": "address"
        }
      ],
      "name": "updateUnlockedBalance",
      "outputs": [],
      "stateMutability": "nonpayable",
      "type": "function"
    }
  ],
  "bytecode": "0x60806040523480156200001157600080fd5b50604051620022d4380380620022d48339810160408190526200003491620001f4565b838360036200004483826200033c565b5060046200005382826200033c565b505050620000706200006a620000d960201b60201c565b620000dd565b600160066000620000896005546001600160a01b031690565b6001600160a01b031681526020810191909152604001600020805460ff19169115159190911790556007620000bf83826200033c565b50600c620000ce82826200033c565b505050505062000408565b3390565b600580546001600160a01b038381166001600160a01b0319831681179093556040519116919082907f8be0079c531659141344cd1fd0a4f28419497f9722a3daafe3b4186f6b6457e090600090a35050565b634e487b7160e01b600052604160045260246000fd5b600082601f8301126200015757600080fd5b81516001600160401b03808211156200017457620001746200012f565b604051601f8301601f19908116603f011681019082821181831017156200019f576200019f6200012f565b81604052838152602092508683858801011115620001bc57600080fd5b600091505b83821015620001e05785820183015181830184015290820190620001c1565b600093810190920192909252949350505050565b600080600080608085870312156200020b57600080fd5b84516001600160401b03808211156200022357600080fd5b620002318883890162000145565b955060208701519150808211156200024857600080fd5b620002568883890162000145565b945060408701519150808211156200026d57600080fd5b6200027b8883890162000145565b935060608701519150808211156200029257600080fd5b50620002a18782880162000145565b91505092959194509250565b600181811c90821680620002c257607f821691505b602082108103620002e357634e487b7160e01b600052602260045260246000fd5b50919050565b601f8211156200033757600081815260208120601f850160051c81016020861015620003125750805b601f850160051c820191505b8181101562000333578281556001016200031e565b5050505b505050565b81516001600160401b038111156200035857620003586200012f565b6200037081620003698454620002ad565b84620002e9565b602080601f831160018114620003a857600084156200038f5750858301515b600019600386901b1c1916600185901b17855562000333565b600085815260208120601f198616915b82811015620003d957888601518255948401946001909101908401620003b8565b5085821015620003f85787850151600019600388901b60f8161c191681555b5050505050600190811b01905550565b611ebc80620004186000396000f3fe608060405234801561001057600080fd5b50600436106101f05760003560e01c8063742bcfb91161010f578063ac18de43116100a2578063dd62ed3e11610071578063dd62ed3e1461040a578063f2fde38b14610443578063f9f92be414610456578063fdff9b4d1461047957600080fd5b8063ac18de43146103df578063b6f3f14d146103f2578063d0cc82e3146103fa578063d6e2280c1461040257600080fd5b8063978311e8116100de578063978311e8146103935780639f316dcc146103a6578063a457c2d7146103b9578063a9059cbb146103cc57600080fd5b8063742bcfb91461033d5780637e04ec84146103505780638da5cb5b1461037057806395d89b411461038b57600080fd5b806334dc6aa811610187578063537df3b611610156578063537df3b6146102d05780636e08b196146102e357806370a082311461030c578063715018a61461033557600080fd5b806334dc6aa81461028f57806339509351146102a257806339e845e6146102b557806344337ea1146102bd57600080fd5b806323b872dd116101c357806323b872dd14610250578063267b0798146102635780632d06177a1461026b578063313ce5671461028057600080fd5b806306fdde03146101f5578063095ea7b31461021357806318160ddd146102365780631f4339d814610248575b600080fd5b6101fd61049c565b60405161020a919061196e565b60405180910390f35b6102266102213660046119d8565b61052e565b604051901515815260200161020a565b6002545b60405190815260200161020a565b6101fd610548565b61022661025e366004611a02565b6105d6565b61023a6107e5565b61027e610279366004611a3e565b610897565b005b6040516012815260200161020a565b61027e61029d366004611aa7565b6108c3565b6102266102b03660046119d8565b610958565b61023a610997565b61027e6102cb366004611a3e565b6109a2565b61027e6102de366004611a3e565b610a4b565b61023a6102f1366004611a3e565b6001600160a01b031660009081526009602052604090205490565b61023a61031a366004611a3e565b6001600160a01b031660009081526020819052604090205490565b61027e610af1565b61023a61034b366004611a3e565b610b05565b61036361035e366004611a3e565b610bb0565b60405161020a9190611b3c565b6005546040516001600160a01b03909116815260200161020a565b6101fd610c39565b61027e6103a1366004611c0b565b610c48565b61027e6103b4366004611a3e565b610f79565b6102266103c73660046119d8565b61112e565b6102266103da3660046119d8565b6111e3565b61027e6103ed366004611a3e565b61133b565b6101fd611364565b61023a600581565b6101fd611373565b61023a610418366004611c89565b6001600160a01b03918216600090815260016020908152604080832093909416825291909152205490565b61027e610451366004611a3e565b611382565b610226610464366004611a3e565b60086020526000908152604090205460ff1681565b610226610487366004611a3e565b60066020526000908152604090205460ff1681565b6060600380546104ab90611cbc565b80601f01602080910402602001604051908101604052809291908181526020018280546104d790611cbc565b80156105245780601f106104f957610100808354040283529160200191610524565b820191906000526020600020905b81548152906001019060200180831161050757829003601f168201915b5050505050905090565b60003361053c81858561140f565b60019150505b92915050565b600c805461055590611cbc565b80601f016020809104026020016040519081016040528092919081815260200182805461058190611cbc565b80156105ce5780601f106105a3576101008083540402835291602001916105ce565b820191906000526020600020905b8154815290600101906020018083116105b157829003601f168201915b505050505081565b6001600160a01b038216600090815260086020526040812054839060ff161561066c5760405162461bcd60e51b815260206004820152602560248201527f5365637572697479546f6b656e3a206163636f756e7420697320626c61636b6c60448201527f697374656400000000000000000000000000000000000000000000000000000060648201526084015b60405180910390fd5b6001600160a01b038516600090815260086020526040902054859060ff16156106fd5760405162461bcd60e51b815260206004820152602560248201527f5365637572697479546f6b656e3a206163636f756e7420697320626c61636b6c60448201527f69737465640000000000000000000000000000000000000000000000000000006064820152608401610663565b61070686610f79565b6001600160a01b0386166000908152600a60205260409020548411156107945760405162461bcd60e51b815260206004820152603760248201527f5365637572697479546f6b656e3a207472616e7366657220616d6f756e74206560448201527f78636565647320756e6c6f636b65642062616c616e63650000000000000000006064820152608401610663565b336107a0878287611567565b6107ab8787876115f9565b6001600160a01b0387166000908152600a6020526040812080548792906107d3908490611d0c565b90915550600198975050505050505050565b336000908152600b60205260408120546005101561086b5760405162461bcd60e51b815260206004820152602a60248201527f5365637572697479546f6b656e3a20546f6f206d616e792076657374696e672060448201527f7363686564756c65732e000000000000000000000000000000000000000000006064820152608401610663565b600a6000335b6001600160a01b03166001600160a01b0316815260200190815260200160002054905090565b61089f6117e6565b6001600160a01b03166000908152600660205260409020805460ff19166001179055565b3360009081526006602052604090205460ff166109485760405162461bcd60e51b815260206004820152602b60248201527f4f6e6c7920746f6b656e206d616e61676572732063616e20706572666f726d2060448201527f7468697320616374696f6e0000000000000000000000000000000000000000006064820152608401610663565b600c6109548282611d6d565b5050565b3360008181526001602090815260408083206001600160a01b038716845290915281205490919061053c9082908690610992908790611e2d565b61140f565b600060098133610871565b3360009081526006602052604090205460ff16610a275760405162461bcd60e51b815260206004820152602b60248201527f4f6e6c7920746f6b656e206d616e61676572732063616e20706572666f726d2060448201527f7468697320616374696f6e0000000000000000000000000000000000000000006064820152608401610663565b6001600160a01b03166000908152600860205260409020805460ff19166001179055565b3360009081526006602052604090205460ff16610ad05760405162461bcd60e51b815260206004820152602b60248201527f4f6e6c7920746f6b656e206d616e61676572732063616e20706572666f726d2060448201527f7468697320616374696f6e0000000000000000000000000000000000000000006064820152608401610663565b6001600160a01b03166000908152600860205260409020805460ff19169055565b610af96117e6565b610b036000611840565b565b6001600160a01b0381166000908152600b602052604081205460051015610b945760405162461bcd60e51b815260206004820152602a60248201527f5365637572697479546f6b656e3a20546f6f206d616e792076657374696e672060448201527f7363686564756c65732e000000000000000000000000000000000000000000006064820152608401610663565b506001600160a01b03166000908152600a602052604090205490565b6001600160a01b0381166000908152600b60209081526040808320805482518185028101850190935280835260609492939192909184015b82821015610c2e57838290600052602060002090600202016040518060400160405290816000820154815260200160018201548152505081526020019060010190610be8565b505050509050919050565b6060600480546104ab90611cbc565b3360009081526006602052604090205460ff16610ccd5760405162461bcd60e51b815260206004820152602b60248201527f4f6e6c7920746f6b656e206d616e61676572732063616e20706572666f726d2060448201527f7468697320616374696f6e0000000000000000000000000000000000000000006064820152608401610663565b81516001600160a01b0385166000908152600b6020526040902054600591610cf491611e2d565b1115610d685760405162461bcd60e51b815260206004820152603960248201527f5365637572697479546f6b656e3a206578636565646564206d6178696d756d2060448201527f6e756d626572206f662076657374696e6720656e7472696573000000000000006064820152608401610663565b8051825114610ddf5760405162461bcd60e51b815260206004820152603760248201527f5365637572697479546f6b656e3a2076657374696e6720617272617973206d7560448201527f73742068617665207468652073616d65206c656e6774680000000000000000006064820152608401610663565b6000805b8351811015610e2557838181518110610dfe57610dfe611e40565b602002602001015182610e119190611e2d565b915080610e1d81611e56565b915050610de3565b50808414610e9d576040805162461bcd60e51b81526020600482015260248101919091527f5365637572697479546f6b656e3a20746f74616c2076657374696e6720616d6f60448201527f756e74206d75737420657175616c20746f74616c206d696e7420616d6f756e746064820152608401610663565b610ea785856118aa565b60005b8351811015610f4d5760006040518060400160405280858481518110610ed257610ed2611e40565b60200260200101518152602001868481518110610ef157610ef1611e40565b6020908102919091018101519091526001600160a01b0389166000908152600b82526040812080546001818101835591835291839020845160029093020191825592909101519101555080610f4581611e56565b915050610eaa565b5082516001600160a01b038616600090815260096020526040902055610f7285610f79565b5050505050565b6001600160a01b0381166000908152600b60205260409020541561112b576001600160a01b0381166000908152600b6020526040812080548290610fbf57610fbf611e40565b90600052602060002090600202019050806000015442106109545760018101546001600160a01b0383166000908152600a602052604081208054909190611007908490611e2d565b90915550600090505b6001600160a01b0383166000908152600b602052604090205461103590600190611d0c565b8110156110e3576001600160a01b0383166000908152600b6020526040902061105f826001611e2d565b8154811061106f5761106f611e40565b9060005260206000209060020201600b6000856001600160a01b03166001600160a01b0316815260200190815260200160002082815481106110b3576110b3611e40565b600091825260209091208254600290920201908155600191820154910155806110db81611e56565b915050611010565b506001600160a01b0382166000908152600b6020526040902080548061110b5761110b611e70565b600082815260208120600260001990930192830201818155600101559055505b50565b3360008181526001602090815260408083206001600160a01b0387168452909152812054909190838110156111cb5760405162461bcd60e51b815260206004820152602560248201527f45524332303a2064656372656173656420616c6c6f77616e63652062656c6f7760448201527f207a65726f0000000000000000000000000000000000000000000000000000006064820152608401610663565b6111d8828686840361140f565b506001949350505050565b6001600160a01b038216600090815260086020526040812054839060ff16156112745760405162461bcd60e51b815260206004820152602560248201527f5365637572697479546f6b656e3a206163636f756e7420697320626c61636b6c60448201527f69737465640000000000000000000000000000000000000000000000000000006064820152608401610663565b61127d33610f79565b336000908152600a60205260409020548311156113025760405162461bcd60e51b815260206004820152603760248201527f5365637572697479546f6b656e3a207472616e7366657220616d6f756e74206560448201527f78636565647320756e6c6f636b65642062616c616e63650000000000000000006064820152608401610663565b61130d3385856115f9565b336000908152600a60205260408120805485929061132c908490611d0c565b90915550600195945050505050565b6113436117e6565b6001600160a01b03166000908152600660205260409020805460ff19169055565b6060600c80546104ab90611cbc565b6060600780546104ab90611cbc565b61138a6117e6565b6001600160a01b0381166114065760405162461bcd60e51b815260206004820152602660248201527f4f776e61626c653a206e6577206f776e657220697320746865207a65726f206160448201527f64647265737300000000000000000000000000000000000000000000000000006064820152608401610663565b61112b81611840565b6001600160a01b03831661148a5760405162461bcd60e51b8152602060048201526024808201527f45524332303a20617070726f76652066726f6d20746865207a65726f2061646460448201527f72657373000000000000000000000000000000000000000000000000000000006064820152608401610663565b6001600160a01b0382166115065760405162461bcd60e51b815260206004820152602260248201527f45524332303a20617070726f766520746f20746865207a65726f20616464726560448201527f73730000000000000000000000000000000000000000000000000000000000006064820152608401610663565b6001600160a01b0383811660008181526001602090815260408083209487168084529482529182902085905590518481527f8c5be1e5ebec7d5bd14f71427d1e84f3dd0314c0f7b2291e5b200ac8c7c3b925910160405180910390a3505050565b6001600160a01b0383811660009081526001602090815260408083209386168352929052205460001981146115f357818110156115e65760405162461bcd60e51b815260206004820152601d60248201527f45524332303a20696e73756666696369656e7420616c6c6f77616e63650000006044820152606401610663565b6115f3848484840361140f565b50505050565b6001600160a01b0383166116755760405162461bcd60e51b815260206004820152602560248201527f45524332303a207472616e736665722066726f6d20746865207a65726f20616460448201527f64726573730000000000000000000000000000000000000000000000000000006064820152608401610663565b6001600160a01b0382166116f15760405162461bcd60e51b815260206004820152602360248201527f45524332303a207472616e7366657220746f20746865207a65726f206164647260448201527f65737300000000000000000000000000000000000000000000000000000000006064820152608401610663565b6001600160a01b038316600090815260208190526040902054818110156117805760405162461bcd60e51b815260206004820152602660248201527f45524332303a207472616e7366657220616d6f756e742065786365656473206260448201527f616c616e636500000000000000000000000000000000000000000000000000006064820152608401610663565b6001600160a01b03848116600081815260208181526040808320878703905593871680835291849020805487019055925185815290927fddf252ad1be2c89b69c2b068fc378daa952ba7f163c4a11628f55a4df523b3ef910160405180910390a36115f3565b6005546001600160a01b03163314610b035760405162461bcd60e51b815260206004820181905260248201527f4f776e61626c653a2063616c6c6572206973206e6f7420746865206f776e65726044820152606401610663565b600580546001600160a01b038381167fffffffffffffffffffffffff0000000000000000000000000000000000000000831681179093556040519116919082907f8be0079c531659141344cd1fd0a4f28419497f9722a3daafe3b4186f6b6457e090600090a35050565b6001600160a01b0382166119005760405162461bcd60e51b815260206004820152601f60248201527f45524332303a206d696e7420746f20746865207a65726f2061646472657373006044820152606401610663565b80600260008282546119129190611e2d565b90915550506001600160a01b038216600081815260208181526040808320805486019055518481527fddf252ad1be2c89b69c2b068fc378daa952ba7f163c4a11628f55a4df523b3ef910160405180910390a35050565b505050565b600060208083528351808285015260005b8181101561199b5785810183015185820160400152820161197f565b506000604082860101526040601f19601f8301168501019250505092915050565b80356001600160a01b03811681146119d357600080fd5b919050565b600080604083850312156119eb57600080fd5b6119f4836119bc565b946020939093013593505050565b600080600060608486031215611a1757600080fd5b611a20846119bc565b9250611a2e602085016119bc565b9150604084013590509250925092565b600060208284031215611a5057600080fd5b611a59826119bc565b9392505050565b634e487b7160e01b600052604160045260246000fd5b604051601f8201601f1916810167ffffffffffffffff81118282101715611a9f57611a9f611a60565b604052919050565b60006020808385031215611aba57600080fd5b823567ffffffffffffffff80821115611ad257600080fd5b818501915085601f830112611ae657600080fd5b813581811115611af857611af8611a60565b611b0a84601f19601f84011601611a76565b91508082528684828501011115611b2057600080fd5b8084840185840137600090820190930192909252509392505050565b602080825282518282018190526000919060409081850190868401855b82811015611b7e57815180518552860151868501529284019290850190600101611b59565b5091979650505050505050565b600082601f830112611b9c57600080fd5b8135602067ffffffffffffffff821115611bb857611bb8611a60565b8160051b611bc7828201611a76565b9283528481018201928281019087851115611be157600080fd5b83870192505b84831015611c0057823582529183019190830190611be7565b979650505050505050565b60008060008060808587031215611c2157600080fd5b611c2a856119bc565b935060208501359250604085013567ffffffffffffffff80821115611c4e57600080fd5b611c5a88838901611b8b565b93506060870135915080821115611c7057600080fd5b50611c7d87828801611b8b565b91505092959194509250565b60008060408385031215611c9c57600080fd5b611ca5836119bc565b9150611cb3602084016119bc565b90509250929050565b600181811c90821680611cd057607f821691505b602082108103611cf057634e487b7160e01b600052602260045260246000fd5b50919050565b634e487b7160e01b600052601160045260246000fd5b8181038181111561054257610542611cf6565b601f82111561196957600081815260208120601f850160051c81016020861015611d465750805b601f850160051c820191505b81811015611d6557828155600101611d52565b505050505050565b815167ffffffffffffffff811115611d8757611d87611a60565b611d9b81611d958454611cbc565b84611d1f565b602080601f831160018114611dd05760008415611db85750858301515b600019600386901b1c1916600185901b178555611d65565b600085815260208120601f198616915b82811015611dff57888601518255948401946001909101908401611de0565b5085821015611e1d5787850151600019600388901b60f8161c191681555b5050505050600190811b01905550565b8082018082111561054257610542611cf6565b634e487b7160e01b600052603260045260246000fd5b60006000198203611e6957611e69611cf6565b5060010190565b634e487b7160e01b600052603160045260246000fdfea2646970667358221220b24f971ba376d024f7775e38e50a01faabde5a80145b9028a6976ab20508777d64736f6c63430008130033",
  "linkReferences": {},
  "deployedLinkReferences": {}
}