{
  "_format": "hh-sol-artifact-1",
  "contractName": "SecurityToken",
  "sourceName": "contracts/SecurityToken.sol",
  "abi": [
    {
      "inputs": [
        {
          "internalType": "string",
          "name": "_name",
          "type": "string"
        },
        {
          "internalType": "string",
          "name": "_symbol",
          "type": "string"
        },
        {
          "internalType": "string",
          "name": "_asset",
          "type": "string"
        }
      ],
      "stateMutability": "nonpayable",
      "type": "constructor"
    },
    {
      "anonymous": false,
      "inputs": [
        {
          "indexed": true,
          "internalType": "address",
          "name": "owner",
          "type": "address"
        },
        {
          "indexed": true,
          "internalType": "address",
          "name": "spender",
          "type": "address"
        },
        {
          "indexed": false,
          "internalType": "uint256",
          "name": "value",
          "type": "uint256"
        }
      ],
      "name": "Approval",
      "type": "event"
    },
    {
      "anonymous": false,
      "inputs": [
        {
          "indexed": true,
          "internalType": "string",
          "name": "name",
          "type": "string"
        },
        {
          "indexed": false,
          "internalType": "string",
          "name": "uri",
          "type": "string"
        }
      ],
      "name": "DocumentAttached",
      "type": "event"
    },
    {
      "anonymous": false,
      "inputs": [
        {
          "indexed": true,
          "internalType": "address",
          "name": "previousOwner",
          "type": "address"
        },
        {
          "indexed": true,
          "internalType": "address",
          "name": "newOwner",
          "type": "address"
        }
      ],
      "name": "OwnershipTransferred",
      "type": "event"
    },
    {
      "anonymous": false,
      "inputs": [
        {
          "indexed": true,
          "internalType": "address",
          "name": "from",
          "type": "address"
        },
        {
          "indexed": true,
          "internalType": "address",
          "name": "to",
          "type": "address"
        },
        {
          "indexed": false,
          "internalType": "uint256",
          "name": "value",
          "type": "uint256"
        }
      ],
      "name": "Transfer",
      "type": "event"
    },
    {
      "inputs": [],
      "name": "MAX_VESTING_ENTRIES",
      "outputs": [
        {
          "internalType": "uint256",
          "name": "",
          "type": "uint256"
        }
      ],
      "stateMutability": "view",
      "type": "function"
    },
    {
      "inputs": [
        {
          "internalType": "address",
          "name": "_address",
          "type": "address"
        }
      ],
      "name": "addManager",
      "outputs": [],
      "stateMutability": "nonpayable",
      "type": "function"
    },
    {
      "inputs": [
        {
          "internalType": "address",
          "name": "account",
          "type": "address"
        }
      ],
      "name": "addToBlacklist",
      "outputs": [],
      "stateMutability": "nonpayable",
      "type": "function"
    },
    {
      "inputs": [
        {
          "internalType": "address",
          "name": "owner",
          "type": "address"
        },
        {
          "internalType": "address",
          "name": "spender",
          "type": "address"
        }
      ],
      "name": "allowance",
      "outputs": [
        {
          "internalType": "uint256",
          "name": "",
          "type": "uint256"
        }
      ],
      "stateMutability": "view",
      "type": "function"
    },
    {
      "inputs": [
        {
          "internalType": "address",
          "name": "spender",
          "type": "address"
        },
        {
          "internalType": "uint256",
          "name": "amount",
          "type": "uint256"
        }
      ],
      "name": "approve",
      "outputs": [
        {
          "internalType": "bool",
          "name": "",
          "type": "bool"
        }
      ],
      "stateMutability": "nonpayable",
      "type": "function"
    },
    {
      "inputs": [
        {
          "internalType": "string",
          "name": "_name",
          "type": "string"
        },
        {
          "internalType": "string",
          "name": "_uri",
          "type": "string"
        }
      ],
      "name": "attachDocument",
      "outputs": [],
      "stateMutability": "nonpayable",
      "type": "function"
    },
    {
      "inputs": [
        {
          "internalType": "address",
          "name": "account",
          "type": "address"
        }
      ],
      "name": "balanceOf",
      "outputs": [
        {
          "internalType": "uint256",
          "name": "",
          "type": "uint256"
        }
      ],
      "stateMutability": "view",
      "type": "function"
    },
    {
      "inputs": [
        {
          "internalType": "address",
          "name": "",
          "type": "address"
        }
      ],
      "name": "blacklist",
      "outputs": [
        {
          "internalType": "bool",
          "name": "",
          "type": "bool"
        }
      ],
      "stateMutability": "view",
      "type": "function"
    },
    {
      "inputs": [],
      "name": "decimals",
      "outputs": [
        {
          "internalType": "uint8",
          "name": "",
          "type": "uint8"
        }
      ],
      "stateMutability": "view",
      "type": "function"
    },
    {
      "inputs": [
        {
          "internalType": "address",
          "name": "spender",
          "type": "address"
        },
        {
          "internalType": "uint256",
          "name": "subtractedValue",
          "type": "uint256"
        }
      ],
      "name": "decreaseAllowance",
      "outputs": [
        {
          "internalType": "bool",
          "name": "",
          "type": "bool"
        }
      ],
      "stateMutability": "nonpayable",
      "type": "function"
    },
    {
      "inputs": [
        {
          "internalType": "uint256",
          "name": "",
          "type": "uint256"
        }
      ],
      "name": "documents",
      "outputs": [
        {
          "internalType": "string",
          "name": "name",
          "type": "string"
        },
        {
          "internalType": "string",
          "name": "uri",
          "type": "string"
        },
        {
          "internalType": "bool",
          "name": "deleted",
          "type": "bool"
        }
      ],
      "stateMutability": "view",
      "type": "function"
    },
    {
      "inputs": [],
      "name": "getAssetId",
      "outputs": [
        {
          "internalType": "string",
          "name": "",
          "type": "string"
        }
      ],
      "stateMutability": "view",
      "type": "function"
    },
    {
      "inputs": [
        {
          "internalType": "uint256",
          "name": "index",
          "type": "uint256"
        }
      ],
      "name": "getDocument",
      "outputs": [
        {
          "internalType": "string",
          "name": "",
          "type": "string"
        },
        {
          "internalType": "string",
          "name": "",
          "type": "string"
        }
      ],
      "stateMutability": "view",
      "type": "function"
    },
    {
      "inputs": [],
      "name": "getNumberOfPartitions",
      "outputs": [
        {
          "internalType": "uint256",
          "name": "",
          "type": "uint256"
        }
      ],
      "stateMutability": "view",
      "type": "function"
    },
    {
      "inputs": [
        {
          "internalType": "address",
          "name": "tokenHolder",
          "type": "address"
        }
      ],
      "name": "getNumberOfPartitionsOf",
      "outputs": [
        {
          "internalType": "uint256",
          "name": "",
          "type": "uint256"
        }
      ],
      "stateMutability": "view",
      "type": "function"
    },
    {
      "inputs": [],
      "name": "getUnlockedBalance",
      "outputs": [
        {
          "internalType": "uint256",
          "name": "",
          "type": "uint256"
        }
      ],
      "stateMutability": "view",
      "type": "function"
    },
    {
      "inputs": [
        {
          "internalType": "address",
          "name": "tokenHolder",
          "type": "address"
        }
      ],
      "name": "getUnlockedBalanceOf",
      "outputs": [
        {
          "internalType": "uint256",
          "name": "",
          "type": "uint256"
        }
      ],
      "stateMutability": "view",
      "type": "function"
    },
    {
      "inputs": [
        {
          "internalType": "address",
          "name": "tokenHolder",
          "type": "address"
        }
      ],
      "name": "getVestingScheduleOf",
      "outputs": [
        {
          "components": [
            {
              "internalType": "uint256",
              "name": "unlockTime",
              "type": "uint256"
            },
            {
              "internalType": "uint256",
              "name": "amount",
              "type": "uint256"
            }
          ],
          "internalType": "struct ISecurityToken.VestingEntry[]",
          "name": "",
          "type": "tuple[]"
        }
      ],
      "stateMutability": "view",
      "type": "function"
    },
    {
      "inputs": [
        {
          "internalType": "address",
          "name": "spender",
          "type": "address"
        },
        {
          "internalType": "uint256",
          "name": "addedValue",
          "type": "uint256"
        }
      ],
      "name": "increaseAllowance",
      "outputs": [
        {
          "internalType": "bool",
          "name": "",
          "type": "bool"
        }
      ],
      "stateMutability": "nonpayable",
      "type": "function"
    },
    {
      "inputs": [
        {
          "internalType": "address",
          "name": "",
          "type": "address"
        }
      ],
      "name": "managers",
      "outputs": [
        {
          "internalType": "bool",
          "name": "",
          "type": "bool"
        }
      ],
      "stateMutability": "view",
      "type": "function"
    },
    {
      "inputs": [
        {
          "internalType": "address",
          "name": "account",
          "type": "address"
        },
        {
          "internalType": "uint256",
          "name": "amount",
          "type": "uint256"
        },
        {
          "internalType": "uint256[]",
          "name": "vestingAmounts",
          "type": "uint256[]"
        },
        {
          "internalType": "uint256[]",
          "name": "vestingUnlockTimes",
          "type": "uint256[]"
        }
      ],
      "name": "mint",
      "outputs": [],
      "stateMutability": "nonpayable",
      "type": "function"
    },
    {
      "inputs": [],
      "name": "name",
      "outputs": [
        {
          "internalType": "string",
          "name": "",
          "type": "string"
        }
      ],
      "stateMutability": "view",
      "type": "function"
    },
    {
      "inputs": [],
      "name": "owner",
      "outputs": [
        {
          "internalType": "address",
          "name": "",
          "type": "address"
        }
      ],
      "stateMutability": "view",
      "type": "function"
    },
    {
      "inputs": [
        {
          "internalType": "uint256",
          "name": "index",
          "type": "uint256"
        }
      ],
      "name": "removeDocument",
      "outputs": [],
      "stateMutability": "nonpayable",
      "type": "function"
    },
    {
      "inputs": [
        {
          "internalType": "address",
          "name": "account",
          "type": "address"
        }
      ],
      "name": "removeFromBlacklist",
      "outputs": [],
      "stateMutability": "nonpayable",
      "type": "function"
    },
    {
      "inputs": [
        {
          "internalType": "address",
          "name": "_address",
          "type": "address"
        }
      ],
      "name": "removeManager",
      "outputs": [],
      "stateMutability": "nonpayable",
      "type": "function"
    },
    {
      "inputs": [],
      "name": "renounceOwnership",
      "outputs": [],
      "stateMutability": "nonpayable",
      "type": "function"
    },
    {
      "inputs": [],
      "name": "symbol",
      "outputs": [
        {
          "internalType": "string",
          "name": "",
          "type": "string"
        }
      ],
      "stateMutability": "view",
      "type": "function"
    },
    {
      "inputs": [],
      "name": "totalDocuments",
      "outputs": [
        {
          "internalType": "uint256",
          "name": "",
          "type": "uint256"
        }
      ],
      "stateMutability": "view",
      "type": "function"
    },
    {
      "inputs": [],
      "name": "totalSupply",
      "outputs": [
        {
          "internalType": "uint256",
          "name": "",
          "type": "uint256"
        }
      ],
      "stateMutability": "view",
      "type": "function"
    },
    {
      "inputs": [
        {
          "internalType": "address",
          "name": "to",
          "type": "address"
        },
        {
          "internalType": "uint256",
          "name": "amount",
          "type": "uint256"
        }
      ],
      "name": "transfer",
      "outputs": [
        {
          "internalType": "bool",
          "name": "",
          "type": "bool"
        }
      ],
      "stateMutability": "nonpayable",
      "type": "function"
    },
    {
      "inputs": [
        {
          "internalType": "address",
          "name": "from",
          "type": "address"
        },
        {
          "internalType": "address",
          "name": "to",
          "type": "address"
        },
        {
          "internalType": "uint256",
          "name": "amount",
          "type": "uint256"
        }
      ],
      "name": "transferFrom",
      "outputs": [
        {
          "internalType": "bool",
          "name": "",
          "type": "bool"
        }
      ],
      "stateMutability": "nonpayable",
      "type": "function"
    },
    {
      "inputs": [
        {
          "internalType": "address",
          "name": "newOwner",
          "type": "address"
        }
      ],
      "name": "transferOwnership",
      "outputs": [],
      "stateMutability": "nonpayable",
      "type": "function"
    },
    {
      "inputs": [
        {
          "internalType": "uint256",
          "name": "index",
          "type": "uint256"
        },
        {
          "internalType": "string",
          "name": "_name",
          "type": "string"
        },
        {
          "internalType": "string",
          "name": "_uri",
          "type": "string"
        }
      ],
      "name": "updateDocument",
      "outputs": [],
      "stateMutability": "nonpayable",
      "type": "function"
    },
    {
      "inputs": [
        {
          "internalType": "address",
          "name": "account",
          "type": "address"
        }
      ],
      "name": "updateUnlockedBalance",
      "outputs": [],
      "stateMutability": "nonpayable",
      "type": "function"
    }
  ],
  "bytecode": "0x60806040523480156200001157600080fd5b5060405162002a4a38038062002a4a8339810160408190526200003491620001e4565b8282600362000044838262000304565b50600462000053828262000304565b505050620000706200006a620000c960201b60201c565b620000cd565b600160066000620000896005546001600160a01b031690565b6001600160a01b031681526020810191909152604001600020805460ff19169115159190911790556007620000bf828262000304565b50505050620003d0565b3390565b600580546001600160a01b038381166001600160a01b0319831681179093556040519116919082907f8be0079c531659141344cd1fd0a4f28419497f9722a3daafe3b4186f6b6457e090600090a35050565b634e487b7160e01b600052604160045260246000fd5b600082601f8301126200014757600080fd5b81516001600160401b03808211156200016457620001646200011f565b604051601f8301601f19908116603f011681019082821181831017156200018f576200018f6200011f565b81604052838152602092508683858801011115620001ac57600080fd5b600091505b83821015620001d05785820183015181830184015290820190620001b1565b600093810190920192909252949350505050565b600080600060608486031215620001fa57600080fd5b83516001600160401b03808211156200021257600080fd5b620002208783880162000135565b945060208601519150808211156200023757600080fd5b620002458783880162000135565b935060408601519150808211156200025c57600080fd5b506200026b8682870162000135565b9150509250925092565b600181811c908216806200028a57607f821691505b602082108103620002ab57634e487b7160e01b600052602260045260246000fd5b50919050565b601f821115620002ff57600081815260208120601f850160051c81016020861015620002da5750805b601f850160051c820191505b81811015620002fb57828155600101620002e6565b5050505b505050565b81516001600160401b038111156200032057620003206200011f565b620003388162000331845462000275565b84620002b1565b602080601f831160018114620003705760008415620003575750858301515b600019600386901b1c1916600185901b178555620002fb565b600085815260208120601f198616915b82811015620003a15788860151825594840194600190910190840162000380565b5085821015620003c05787850151600019600388901b60f8161c191681555b5050505050600190811b01905550565b61266a80620003e06000396000f3fe608060405234801561001057600080fd5b50600436106102415760003560e01c8063742bcfb911610145578063c2ed2b05116100bd578063d6e2280c1161008c578063f2fde38b11610071578063f2fde38b146104f5578063f9f92be414610508578063fdff9b4d1461052b57600080fd5b8063d6e2280c146104b4578063dd62ed3e146104bc57600080fd5b8063c2ed2b0514610464578063d0cc82e314610486578063d3dca6f81461048e578063d5df7559146104a157600080fd5b8063978311e811610114578063a457c2d7116100f9578063a457c2d71461042b578063a9059cbb1461043e578063ac18de431461045157600080fd5b8063978311e8146104055780639f316dcc1461041857600080fd5b8063742bcfb9146103af5780637e04ec84146103c25780638da5cb5b146103e257806395d89b41146103fd57600080fd5b806339e845e6116101d8578063552ab815116101a75780636e08b1961161018c5780636e08b1961461035557806370a082311461037e578063715018a6146103a757600080fd5b8063552ab8151461033a578063553181ec1461034d57600080fd5b806339e845e6146102eb5780633f9b250a146102f357806344337ea114610314578063537df3b61461032757600080fd5b8063267b079811610214578063267b0798146102ac5780632d06177a146102b4578063313ce567146102c957806339509351146102d857600080fd5b806306fdde0314610246578063095ea7b31461026457806318160ddd1461028757806323b872dd14610299575b600080fd5b61024e61054e565b60405161025b9190612010565b60405180910390f35b610277610272366004612046565b6105e0565b604051901515815260200161025b565b6002545b60405190815260200161025b565b6102776102a7366004612070565b6105fa565b61028b610809565b6102c76102c23660046120ac565b6108bb565b005b6040516012815260200161025b565b6102776102e6366004612046565b6108e7565b61028b610926565b6103066103013660046120c7565b610931565b60405161025b9291906120e0565b6102c76103223660046120ac565b610b16565b6102c76103353660046120ac565b610bad565b6102c76103483660046121c5565b610c41565b600c5461028b565b61028b6103633660046120ac565b6001600160a01b031660009081526009602052604090205490565b61028b61038c3660046120ac565b6001600160a01b031660009081526020819052604090205490565b6102c7610d1d565b61028b6103bd3660046120ac565b610d31565b6103d56103d03660046120ac565b610ddc565b60405161025b9190612232565b6005546040516001600160a01b03909116815260200161025b565b61024e610e65565b6102c7610413366004612301565b610e74565b6102c76104263660046120ac565b611193565b610277610439366004612046565b611349565b61027761044c366004612046565b6113fe565b6102c761045f3660046120ac565b611556565b6104776104723660046120c7565b61157f565b60405161025b9392919061237f565b61028b600581565b6102c761049c3660046123b7565b6116cc565b6102c76104af3660046120c7565b611822565b61024e6119ca565b61028b6104ca36600461241b565b6001600160a01b03918216600090815260016020908152604080832093909416825291909152205490565b6102c76105033660046120ac565b6119d9565b6102776105163660046120ac565b60086020526000908152604090205460ff1681565b6102776105393660046120ac565b60066020526000908152604090205460ff1681565b60606003805461055d9061244e565b80601f01602080910402602001604051908101604052809291908181526020018280546105899061244e565b80156105d65780601f106105ab576101008083540402835291602001916105d6565b820191906000526020600020905b8154815290600101906020018083116105b957829003601f168201915b5050505050905090565b6000336105ee818585611a66565b60019150505b92915050565b6001600160a01b038216600090815260086020526040812054839060ff16156106905760405162461bcd60e51b815260206004820152602560248201527f5365637572697479546f6b656e3a206163636f756e7420697320626c61636b6c60448201527f697374656400000000000000000000000000000000000000000000000000000060648201526084015b60405180910390fd5b6001600160a01b038516600090815260086020526040902054859060ff16156107215760405162461bcd60e51b815260206004820152602560248201527f5365637572697479546f6b656e3a206163636f756e7420697320626c61636b6c60448201527f69737465640000000000000000000000000000000000000000000000000000006064820152608401610687565b61072a86611193565b6001600160a01b0386166000908152600a60205260409020548411156107b85760405162461bcd60e51b815260206004820152603760248201527f5365637572697479546f6b656e3a207472616e7366657220616d6f756e74206560448201527f78636565647320756e6c6f636b65642062616c616e63650000000000000000006064820152608401610687565b336107c4878287611bbe565b6107cf878787611c4a565b6001600160a01b0387166000908152600a6020526040812080548792906107f790849061249e565b90915550600198975050505050505050565b336000908152600b60205260408120546005101561088f5760405162461bcd60e51b815260206004820152602a60248201527f5365637572697479546f6b656e3a20546f6f206d616e792076657374696e672060448201527f7363686564756c65732e000000000000000000000000000000000000000000006064820152608401610687565b600a6000335b6001600160a01b03166001600160a01b0316815260200190815260200160002054905090565b6108c3611e37565b6001600160a01b03166000908152600660205260409020805460ff19166001179055565b3360008181526001602090815260408083206001600160a01b03871684529091528120549091906105ee90829086906109219087906124b1565b611a66565b600060098133610895565b600c54606090819083106109ad5760405162461bcd60e51b815260206004820152602b60248201527f5365637572697479546f6b656e3a20646f63756d656e7420696e646578206f7560448201527f74206f6620626f756e64730000000000000000000000000000000000000000006064820152608401610687565b600c83815481106109c0576109c06124c4565b9060005260206000209060030201600001600c84815481106109e4576109e46124c4565b9060005260206000209060030201600101818054610a019061244e565b80601f0160208091040260200160405190810160405280929190818152602001828054610a2d9061244e565b8015610a7a5780601f10610a4f57610100808354040283529160200191610a7a565b820191906000526020600020905b815481529060010190602001808311610a5d57829003601f168201915b50505050509150808054610a8d9061244e565b80601f0160208091040260200160405190810160405280929190818152602001828054610ab99061244e565b8015610b065780601f10610adb57610100808354040283529160200191610b06565b820191906000526020600020905b815481529060010190602001808311610ae957829003601f168201915b5050505050905091509150915091565b3360009081526006602052604090205460ff16610b895760405162461bcd60e51b815260206004820152602b60248201527f4f6e6c7920746f6b656e206d616e61676572732063616e20706572666f726d2060448201526a3a3434b99030b1ba34b7b760a91b6064820152608401610687565b6001600160a01b03166000908152600860205260409020805460ff19166001179055565b3360009081526006602052604090205460ff16610c205760405162461bcd60e51b815260206004820152602b60248201527f4f6e6c7920746f6b656e206d616e61676572732063616e20706572666f726d2060448201526a3a3434b99030b1ba34b7b760a91b6064820152608401610687565b6001600160a01b03166000908152600860205260409020805460ff19169055565b3360009081526006602052604090205460ff16610cb45760405162461bcd60e51b815260206004820152602b60248201527f4f6e6c7920746f6b656e206d616e61676572732063616e20706572666f726d2060448201526a3a3434b99030b1ba34b7b760a91b6064820152608401610687565b81600c8481548110610cc857610cc86124c4565b90600052602060002090600302016000019081610ce59190612528565b5080600c8481548110610cfa57610cfa6124c4565b90600052602060002090600302016001019081610d179190612528565b50505050565b610d25611e37565b610d2f6000611e91565b565b6001600160a01b0381166000908152600b602052604081205460051015610dc05760405162461bcd60e51b815260206004820152602a60248201527f5365637572697479546f6b656e3a20546f6f206d616e792076657374696e672060448201527f7363686564756c65732e000000000000000000000000000000000000000000006064820152608401610687565b506001600160a01b03166000908152600a602052604090205490565b6001600160a01b0381166000908152600b60209081526040808320805482518185028101850190935280835260609492939192909184015b82821015610e5a57838290600052602060002090600202016040518060400160405290816000820154815260200160018201548152505081526020019060010190610e14565b505050509050919050565b60606004805461055d9061244e565b3360009081526006602052604090205460ff16610ee75760405162461bcd60e51b815260206004820152602b60248201527f4f6e6c7920746f6b656e206d616e61676572732063616e20706572666f726d2060448201526a3a3434b99030b1ba34b7b760a91b6064820152608401610687565b81516001600160a01b0385166000908152600b6020526040902054600591610f0e916124b1565b1115610f825760405162461bcd60e51b815260206004820152603960248201527f5365637572697479546f6b656e3a206578636565646564206d6178696d756d2060448201527f6e756d626572206f662076657374696e6720656e7472696573000000000000006064820152608401610687565b8051825114610ff95760405162461bcd60e51b815260206004820152603760248201527f5365637572697479546f6b656e3a2076657374696e6720617272617973206d7560448201527f73742068617665207468652073616d65206c656e6774680000000000000000006064820152608401610687565b6000805b835181101561103f57838181518110611018576110186124c4565b60200260200101518261102b91906124b1565b915080611037816125e8565b915050610ffd565b508084146110b7576040805162461bcd60e51b81526020600482015260248101919091527f5365637572697479546f6b656e3a20746f74616c2076657374696e6720616d6f60448201527f756e74206d75737420657175616c20746f74616c206d696e7420616d6f756e746064820152608401610687565b6110c18585611efb565b60005b835181101561116757600060405180604001604052808584815181106110ec576110ec6124c4565b6020026020010151815260200186848151811061110b5761110b6124c4565b6020908102919091018101519091526001600160a01b0389166000908152600b8252604081208054600181810183559183529183902084516002909302019182559290910151910155508061115f816125e8565b9150506110c4565b5082516001600160a01b03861660009081526009602052604090205561118c85611193565b5050505050565b6001600160a01b0381166000908152600b602052604090205415611346576001600160a01b0381166000908152600b60205260408120805482906111d9576111d96124c4565b90600052602060002090600202019050806000015442106113445760018101546001600160a01b0383166000908152600a6020526040812080549091906112219084906124b1565b90915550600090505b6001600160a01b0383166000908152600b602052604090205461124f9060019061249e565b8110156112fd576001600160a01b0383166000908152600b602052604090206112798260016124b1565b81548110611289576112896124c4565b9060005260206000209060020201600b6000856001600160a01b03166001600160a01b0316815260200190815260200160002082815481106112cd576112cd6124c4565b600091825260209091208254600290920201908155600191820154910155806112f5816125e8565b91505061122a565b506001600160a01b0382166000908152600b6020526040902080548061132557611325612602565b6000828152602081206002600019909301928302018181556001015590555b505b50565b3360008181526001602090815260408083206001600160a01b0387168452909152812054909190838110156113e65760405162461bcd60e51b815260206004820152602560248201527f45524332303a2064656372656173656420616c6c6f77616e63652062656c6f7760448201527f207a65726f0000000000000000000000000000000000000000000000000000006064820152608401610687565b6113f38286868403611a66565b506001949350505050565b6001600160a01b038216600090815260086020526040812054839060ff161561148f5760405162461bcd60e51b815260206004820152602560248201527f5365637572697479546f6b656e3a206163636f756e7420697320626c61636b6c60448201527f69737465640000000000000000000000000000000000000000000000000000006064820152608401610687565b61149833611193565b336000908152600a602052604090205483111561151d5760405162461bcd60e51b815260206004820152603760248201527f5365637572697479546f6b656e3a207472616e7366657220616d6f756e74206560448201527f78636565647320756e6c6f636b65642062616c616e63650000000000000000006064820152608401610687565b611528338585611c4a565b336000908152600a60205260408120805485929061154790849061249e565b90915550600195945050505050565b61155e611e37565b6001600160a01b03166000908152600660205260409020805460ff19169055565b600c818154811061158f57600080fd5b90600052602060002090600302016000915090508060000180546115b29061244e565b80601f01602080910402602001604051908101604052809291908181526020018280546115de9061244e565b801561162b5780601f106116005761010080835404028352916020019161162b565b820191906000526020600020905b81548152906001019060200180831161160e57829003601f168201915b5050505050908060010180546116409061244e565b80601f016020809104026020016040519081016040528092919081815260200182805461166c9061244e565b80156116b95780601f1061168e576101008083540402835291602001916116b9565b820191906000526020600020905b81548152906001019060200180831161169c57829003601f168201915b5050506002909301549192505060ff1683565b3360009081526006602052604090205460ff1661173f5760405162461bcd60e51b815260206004820152602b60248201527f4f6e6c7920746f6b656e206d616e61676572732063616e20706572666f726d2060448201526a3a3434b99030b1ba34b7b760a91b6064820152608401610687565b60408051606081018252838152602081018390526000918101829052600c8054600181018255925280519091829160039091027fdf6966c971051c3d54ec59162606531493a51404a002842f56009d7e5cf4a8c7019081906117a19082612528565b50602082015160018201906117b69082612528565b50604091820151600291909101805460ff1916911515919091179055516117de908490612618565b60405180910390207f9c43710402830cc3ccb29df81a915f80dd524b6b855e7ddc21cb48d5fa19a507836040516118159190612010565b60405180910390a2505050565b3360009081526006602052604090205460ff166118955760405162461bcd60e51b815260206004820152602b60248201527f4f6e6c7920746f6b656e206d616e61676572732063616e20706572666f726d2060448201526a3a3434b99030b1ba34b7b760a91b6064820152608401610687565b600c54811061190c5760405162461bcd60e51b815260206004820152602b60248201527f5365637572697479546f6b656e3a20646f63756d656e7420696e646578206f7560448201527f74206f6620626f756e64730000000000000000000000000000000000000000006064820152608401610687565b6001600c8281548110611921576119216124c4565b906000526020600020906003020160020160006101000a81548160ff02191690831515021790555060405180602001604052806000815250600c828154811061196c5761196c6124c4565b906000526020600020906003020160000190816119899190612528565b5060405180602001604052806000815250600c82815481106119ad576119ad6124c4565b906000526020600020906003020160010190816113449190612528565b60606007805461055d9061244e565b6119e1611e37565b6001600160a01b038116611a5d5760405162461bcd60e51b815260206004820152602660248201527f4f776e61626c653a206e6577206f776e657220697320746865207a65726f206160448201527f64647265737300000000000000000000000000000000000000000000000000006064820152608401610687565b61134681611e91565b6001600160a01b038316611ae15760405162461bcd60e51b8152602060048201526024808201527f45524332303a20617070726f76652066726f6d20746865207a65726f2061646460448201527f72657373000000000000000000000000000000000000000000000000000000006064820152608401610687565b6001600160a01b038216611b5d5760405162461bcd60e51b815260206004820152602260248201527f45524332303a20617070726f766520746f20746865207a65726f20616464726560448201527f73730000000000000000000000000000000000000000000000000000000000006064820152608401610687565b6001600160a01b0383811660008181526001602090815260408083209487168084529482529182902085905590518481527f8c5be1e5ebec7d5bd14f71427d1e84f3dd0314c0f7b2291e5b200ac8c7c3b925910160405180910390a3505050565b6001600160a01b038381166000908152600160209081526040808320938616835292905220546000198114610d175781811015611c3d5760405162461bcd60e51b815260206004820152601d60248201527f45524332303a20696e73756666696369656e7420616c6c6f77616e63650000006044820152606401610687565b610d178484848403611a66565b6001600160a01b038316611cc65760405162461bcd60e51b815260206004820152602560248201527f45524332303a207472616e736665722066726f6d20746865207a65726f20616460448201527f64726573730000000000000000000000000000000000000000000000000000006064820152608401610687565b6001600160a01b038216611d425760405162461bcd60e51b815260206004820152602360248201527f45524332303a207472616e7366657220746f20746865207a65726f206164647260448201527f65737300000000000000000000000000000000000000000000000000000000006064820152608401610687565b6001600160a01b03831660009081526020819052604090205481811015611dd15760405162461bcd60e51b815260206004820152602660248201527f45524332303a207472616e7366657220616d6f756e742065786365656473206260448201527f616c616e636500000000000000000000000000000000000000000000000000006064820152608401610687565b6001600160a01b03848116600081815260208181526040808320878703905593871680835291849020805487019055925185815290927fddf252ad1be2c89b69c2b068fc378daa952ba7f163c4a11628f55a4df523b3ef910160405180910390a3610d17565b6005546001600160a01b03163314610d2f5760405162461bcd60e51b815260206004820181905260248201527f4f776e61626c653a2063616c6c6572206973206e6f7420746865206f776e65726044820152606401610687565b600580546001600160a01b038381167fffffffffffffffffffffffff0000000000000000000000000000000000000000831681179093556040519116919082907f8be0079c531659141344cd1fd0a4f28419497f9722a3daafe3b4186f6b6457e090600090a35050565b6001600160a01b038216611f515760405162461bcd60e51b815260206004820152601f60248201527f45524332303a206d696e7420746f20746865207a65726f2061646472657373006044820152606401610687565b8060026000828254611f6391906124b1565b90915550506001600160a01b038216600081815260208181526040808320805486019055518481527fddf252ad1be2c89b69c2b068fc378daa952ba7f163c4a11628f55a4df523b3ef910160405180910390a3611344565b505050565b60005b83811015611fdb578181015183820152602001611fc3565b50506000910152565b60008151808452611ffc816020860160208601611fc0565b601f01601f19169290920160200192915050565b6020815260006120236020830184611fe4565b9392505050565b80356001600160a01b038116811461204157600080fd5b919050565b6000806040838503121561205957600080fd5b6120628361202a565b946020939093013593505050565b60008060006060848603121561208557600080fd5b61208e8461202a565b925061209c6020850161202a565b9150604084013590509250925092565b6000602082840312156120be57600080fd5b6120238261202a565b6000602082840312156120d957600080fd5b5035919050565b6040815260006120f36040830185611fe4565b82810360208401526121058185611fe4565b95945050505050565b634e487b7160e01b600052604160045260246000fd5b604051601f8201601f1916810167ffffffffffffffff8111828210171561214d5761214d61210e565b604052919050565b600082601f83011261216657600080fd5b813567ffffffffffffffff8111156121805761218061210e565b6121936020601f19601f84011601612124565b8181528460208386010111156121a857600080fd5b816020850160208301376000918101602001919091529392505050565b6000806000606084860312156121da57600080fd5b83359250602084013567ffffffffffffffff808211156121f957600080fd5b61220587838801612155565b9350604086013591508082111561221b57600080fd5b5061222886828701612155565b9150509250925092565b602080825282518282018190526000919060409081850190868401855b828110156122745781518051855286015186850152928401929085019060010161224f565b5091979650505050505050565b600082601f83011261229257600080fd5b8135602067ffffffffffffffff8211156122ae576122ae61210e565b8160051b6122bd828201612124565b92835284810182019282810190878511156122d757600080fd5b83870192505b848310156122f6578235825291830191908301906122dd565b979650505050505050565b6000806000806080858703121561231757600080fd5b6123208561202a565b935060208501359250604085013567ffffffffffffffff8082111561234457600080fd5b61235088838901612281565b9350606087013591508082111561236657600080fd5b5061237387828801612281565b91505092959194509250565b6060815260006123926060830186611fe4565b82810360208401526123a48186611fe4565b9150508215156040830152949350505050565b600080604083850312156123ca57600080fd5b823567ffffffffffffffff808211156123e257600080fd5b6123ee86838701612155565b9350602085013591508082111561240457600080fd5b5061241185828601612155565b9150509250929050565b6000806040838503121561242e57600080fd5b6124378361202a565b91506124456020840161202a565b90509250929050565b600181811c9082168061246257607f821691505b60208210810361248257634e487b7160e01b600052602260045260246000fd5b50919050565b634e487b7160e01b600052601160045260246000fd5b818103818111156105f4576105f4612488565b808201808211156105f4576105f4612488565b634e487b7160e01b600052603260045260246000fd5b601f821115611fbb57600081815260208120601f850160051c810160208610156125015750805b601f850160051c820191505b818110156125205782815560010161250d565b505050505050565b815167ffffffffffffffff8111156125425761254261210e565b61255681612550845461244e565b846124da565b602080601f83116001811461258b57600084156125735750858301515b600019600386901b1c1916600185901b178555612520565b600085815260208120601f198616915b828110156125ba5788860151825594840194600190910190840161259b565b50858210156125d85787850151600019600388901b60f8161c191681555b5050505050600190811b01905550565b600060001982036125fb576125fb612488565b5060010190565b634e487b7160e01b600052603160045260246000fd5b6000825161262a818460208701611fc0565b919091019291505056fea2646970667358221220e8a932f539bb043c0c610f2bf4ea97640bb68d2f8e9cd7199e55a662391136cc64736f6c63430008130033",
  "linkReferences": {},
  "deployedLinkReferences": {}
}